{
  "contractName": "CryptoGiftMarketplace",
  "abi": [
    {
      "constant": false,
      "inputs": [],
      "name": "renounceOwnership",
      "outputs": [],
      "payable": false,
      "stateMutability": "nonpayable",
      "type": "function"
    },
    {
      "constant": false,
      "inputs": [
        {
          "name": "tokenAddress",
          "type": "address"
        },
        {
          "name": "tokenAmount",
          "type": "uint256"
        }
      ],
      "name": "recoverERC20",
      "outputs": [],
      "payable": false,
      "stateMutability": "nonpayable",
      "type": "function"
    },
    {
      "constant": true,
      "inputs": [],
      "name": "owner",
      "outputs": [
        {
          "name": "",
          "type": "address"
        }
      ],
      "payable": false,
      "stateMutability": "view",
      "type": "function"
    },
    {
      "constant": true,
      "inputs": [],
      "name": "isOwner",
      "outputs": [
        {
          "name": "",
          "type": "bool"
        }
      ],
      "payable": false,
      "stateMutability": "view",
      "type": "function"
    },
    {
      "constant": false,
      "inputs": [
        {
          "name": "newOwner",
          "type": "address"
        }
      ],
      "name": "transferOwnership",
      "outputs": [],
      "payable": false,
      "stateMutability": "nonpayable",
      "type": "function"
    },
    {
      "inputs": [
        {
          "name": "price",
          "type": "uint256"
        },
        {
          "name": "wallet",
          "type": "address"
        },
        {
          "name": "token",
          "type": "address"
        }
      ],
      "payable": false,
      "stateMutability": "nonpayable",
      "type": "constructor"
    },
    {
      "anonymous": false,
      "inputs": [
        {
          "indexed": true,
          "name": "purchaser",
          "type": "address"
        },
        {
          "indexed": true,
          "name": "beneficiary",
          "type": "address"
        },
        {
          "indexed": false,
          "name": "value",
          "type": "uint256"
        },
        {
          "indexed": false,
          "name": "tokenId",
          "type": "uint256"
        }
      ],
      "name": "TokenPurchase",
      "type": "event"
    },
    {
      "anonymous": false,
      "inputs": [
        {
          "indexed": true,
          "name": "previousOwner",
          "type": "address"
        },
        {
          "indexed": true,
          "name": "newOwner",
          "type": "address"
        }
      ],
      "name": "OwnershipTransferred",
      "type": "event"
    },
    {
      "constant": true,
      "inputs": [],
      "name": "token",
      "outputs": [
        {
          "name": "",
          "type": "address"
        }
      ],
      "payable": false,
      "stateMutability": "view",
      "type": "function"
    },
    {
      "constant": true,
      "inputs": [],
      "name": "wallet",
      "outputs": [
        {
          "name": "",
          "type": "address"
        }
      ],
      "payable": false,
      "stateMutability": "view",
      "type": "function"
    },
    {
      "constant": true,
      "inputs": [],
      "name": "price",
      "outputs": [
        {
          "name": "",
          "type": "uint256"
        }
      ],
      "payable": false,
      "stateMutability": "view",
      "type": "function"
    },
    {
      "constant": false,
      "inputs": [
        {
          "name": "beneficiary",
          "type": "address"
        },
        {
          "name": "content",
          "type": "string"
        },
        {
          "name": "date",
          "type": "uint256"
        },
        {
          "name": "style",
          "type": "uint256"
        }
      ],
      "name": "buyToken",
      "outputs": [],
      "payable": true,
      "stateMutability": "payable",
      "type": "function"
    },
    {
      "constant": false,
      "inputs": [
        {
          "name": "newPrice",
          "type": "uint256"
        }
      ],
      "name": "setPrice",
      "outputs": [],
      "payable": false,
      "stateMutability": "nonpayable",
      "type": "function"
    }
  ],
  "bytecode": "0x608060405234801561001057600080fd5b5060405160608061099c83398101604081815282516020840151919093015160008054600160a060020a031916331780825592939192600160a060020a0316917f8be0079c531659141344cd1fd0a4f28419497f9722a3daafe3b4186f6b6457e0908290a3600160a060020a03821615156100ec57604080517f08c379a000000000000000000000000000000000000000000000000000000000815260206004820181905260248201527f57616c6c65742063616e277420626520746865207a65726f2061646472657373604482015290519081900360640190fd5b600160a060020a038116151561016357604080517f08c379a000000000000000000000000000000000000000000000000000000000815260206004820152601f60248201527f546f6b656e2063616e277420626520746865207a65726f206164647265737300604482015290519081900360640190fd5b60039290925560028054600160a060020a03928316600160a060020a031991821617909155600180549290931691161790556107f8806101a46000396000f30060806040526004361061008a5763ffffffff60e060020a600035041663521eb273811461008f578063715018a6146100c05780638980f11f146100d75780638bd37902146100fb5780638da5cb5b1461015e5780638f32d59b1461017357806391b7f5ed1461019c578063a035b1fe146101b4578063f2fde38b146101db578063fc0c546a146101fc575b600080fd5b34801561009b57600080fd5b506100a4610211565b60408051600160a060020a039092168252519081900360200190f35b3480156100cc57600080fd5b506100d5610220565b005b3480156100e357600080fd5b506100d5600160a060020a036004351660243561028a565b60408051602060046024803582810135601f81018590048502860185019096528585526100d5958335600160a060020a03169536956044949193909101919081908401838280828437509497505084359550505060209092013591506103379050565b34801561016a57600080fd5b506100a46103c3565b34801561017f57600080fd5b506101886103d2565b604080519115158252519081900360200190f35b3480156101a857600080fd5b506100d56004356103e3565b3480156101c057600080fd5b506101c96103fb565b60408051918252519081900360200190f35b3480156101e757600080fd5b506100d5600160a060020a0360043516610401565b34801561020857600080fd5b506100a4610420565b600254600160a060020a031690565b6102286103d2565b151561023357600080fd5b60008054604051600160a060020a03909116907f8be0079c531659141344cd1fd0a4f28419497f9722a3daafe3b4186f6b6457e0908390a36000805473ffffffffffffffffffffffffffffffffffffffff19169055565b6102926103d2565b151561029d57600080fd5b81600160a060020a031663a9059cbb6102b46103c3565b836040518363ffffffff1660e060020a0281526004018083600160a060020a0316600160a060020a0316815260200182815260200192505050602060405180830381600087803b15801561030757600080fd5b505af115801561031b573d6000803e3d6000fd5b505050506040513d602081101561033157600080fd5b50505050565b34600080610345878461042f565b60035461035990349063ffffffff61056716565b9150610368828888888861057e565b60408051848152602081018390528151929350600160a060020a038a169233927f623b3804fa71d67900d064613da8f94b9617215ee90799290593e1745087ad18928290030190a36103ba82886106c2565b50505050505050565b600054600160a060020a031690565b600054600160a060020a0316331490565b6103eb6103d2565b15156103f657600080fd5b600355565b60035490565b6104096103d2565b151561041457600080fd5b61041d8161074f565b50565b600154600160a060020a031690565b600160a060020a03821615156104cc57604080517f08c379a000000000000000000000000000000000000000000000000000000000815260206004820152602560248201527f42656e65666963696172792063616e277420626520746865207a65726f20616460448201527f6472657373000000000000000000000000000000000000000000000000000000606482015290519081900360840190fd5b60035481101561056357604080517f08c379a000000000000000000000000000000000000000000000000000000000815260206004820152603560248201527f53656e7420455448206d7573742062652067726561746572207468616e206f7260448201527f20657175616c20746f20746f6b656e2070726963650000000000000000000000606482015290519081900360840190fd5b5050565b6000808383111561057757600080fd5b5050900390565b6000600160009054906101000a9004600160a060020a0316600160a060020a03166331443e1b8733888888886040518763ffffffff1660e060020a0281526004018087815260200186600160a060020a0316600160a060020a0316815260200185600160a060020a0316600160a060020a0316815260200180602001848152602001838152602001828103825285818151815260200191508051906020019080838360005b8381101561063b578181015183820152602001610623565b50505050905090810190601f1680156106685780820380516001836020036101000a031916815260200191505b50975050505050505050602060405180830381600087803b15801561068c57600080fd5b505af11580156106a0573d6000803e3d6000fd5b505050506040513d60208110156106b657600080fd5b50519695505050505050565b6000600354111561070b57600254600354604051600160a060020a039092169181156108fc0291906000818181858888f19350505050158015610709573d6000803e3d6000fd5b505b600082111561056357604051600160a060020a0382169083156108fc029084906000818181858888f1935050505015801561074a573d6000803e3d6000fd5b505050565b600160a060020a038116151561076457600080fd5b60008054604051600160a060020a03808516939216917f8be0079c531659141344cd1fd0a4f28419497f9722a3daafe3b4186f6b6457e091a36000805473ffffffffffffffffffffffffffffffffffffffff1916600160a060020a03929092169190911790555600a165627a7a723058206d909169857ef15bc4a79f23e09c81e6bcb7bcb95c3cfe0595ba2c8daf59ed1f0029",
  "source": "pragma solidity ^0.4.24;\n\nimport \"openzeppelin-solidity/contracts/math/SafeMath.sol\";\nimport \"openzeppelin-solidity/contracts/ownership/Ownable.sol\";\nimport \"eth-token-recover/contracts/TokenRecover.sol\";\nimport \"../token/CryptoGiftToken.sol\";\n\ncontract CryptoGiftMarketplace is TokenRecover {\n  using SafeMath for uint256;\n\n  // The token being sold\n  CryptoGiftToken private _token;\n\n  // Address where funds are collected\n  address private _wallet;\n\n  // The price for a token\n  uint256 private _price;\n\n  /**\n   * Event for token purchase logging\n   * @param purchaser who paid for the tokens\n   * @param beneficiary who got the tokens\n   * @param value weis paid for purchase\n   * @param tokenId the token id purchased\n   */\n  event TokenPurchase(\n    address indexed purchaser,\n    address indexed beneficiary,\n    uint256 value,\n    uint256 tokenId\n  );\n\n  /**\n   * @param price The price for a token in wei\n   * @param wallet Address where collected funds will be forwarded to\n   * @param token Address of the token being sold\n   */\n  constructor(uint256 price, address wallet, address token) public {\n    require(\n      wallet != address(0),\n      \"Wallet can't be the zero address\"\n    );\n    require(\n      token != address(0),\n      \"Token can't be the zero address\"\n    );\n\n    _price = price;\n    _wallet = wallet;\n    _token = CryptoGiftToken(token);\n  }\n\n  function token() public view returns (CryptoGiftToken) {\n    return _token;\n  }\n\n  function wallet() public view returns (address) {\n    return _wallet;\n  }\n\n  function price() public view returns (uint256) {\n    return _price;\n  }\n\n  /**\n   * @dev low level token purchase ***DO NOT OVERRIDE***\n   * @param beneficiary Address performing the token purchase\n   */\n  function buyToken(\n    address beneficiary,\n    string content,\n    uint256 date,\n    uint256 style\n  )\n    public\n    payable\n  {\n    uint256 weiAmount = msg.value;\n    _preValidatePurchase(beneficiary, weiAmount);\n\n    uint256 giftValue = msg.value.sub(_price);\n\n    uint256 lastTokenId = _processPurchase(\n      giftValue,\n      beneficiary,\n      content,\n      date,\n      style\n    );\n\n    emit TokenPurchase(\n      msg.sender,\n      beneficiary,\n      giftValue,\n      lastTokenId\n    );\n\n    _forwardFunds(giftValue, beneficiary);\n  }\n\n  function setPrice(uint256 newPrice) public onlyOwner {\n    _price = newPrice;\n  }\n\n  // -----------------------------------------\n  // Internal interface (extensible)\n  // -----------------------------------------\n\n  /**\n   * @dev Validation of an incoming purchase. Use require statements to revert state when conditions are not met. Use super to concatenate validations.\n   * @param beneficiary Address performing the token purchase\n   * @param weiAmount Value in wei involved in the purchase\n   */\n  function _preValidatePurchase(\n    address beneficiary,\n    uint256 weiAmount\n  )\n    internal\n    view\n  {\n    require(\n      beneficiary != address(0),\n      \"Beneficiary can't be the zero address\"\n    );\n    require(\n      weiAmount >= _price,\n      \"Sent ETH must be greater than or equal to token price\"\n    );\n  }\n\n  /**\n   * @dev Executed when a purchase has been validated and is ready to be executed.\n   */\n  function _processPurchase(\n    uint256 amount,\n    address beneficiary,\n    string content,\n    uint256 date,\n    uint256 style\n  )\n    internal\n    returns (uint256)\n  {\n    return _token.newToken(\n      amount,\n      msg.sender,\n      beneficiary,\n      content,\n      date,\n      style\n    );\n  }\n\n  /**\n   * @dev Determines how ETH is stored/forwarded on purchases.\n   */\n  function _forwardFunds(uint256 giftValue, address beneficiary) internal {\n    if (_price > 0) {\n      _wallet.transfer(_price);\n    }\n\n    if (giftValue > 0) {\n      beneficiary.transfer(giftValue);\n    }\n  }\n}\n",
  "sourcePath": "/Users/vittominacori/Projects/vittominacori.github.io/cryptogift/cryptogift-smartcontracts/contracts/marketplace/CryptoGiftMarketplace.sol",
  "compiler": {
    "name": "solc",
    "version": "0.4.24+commit.e67f0147.Emscripten.clang"
  },
  "schemaVersion": "2.0.1",
  "updatedAt": "2018-10-28T18:16:39.734Z"
}