{
  "contractName": "CryptoGiftToken",
  "abi": [
    {
      "constant": true,
      "inputs": [
        {
          "name": "interfaceId",
          "type": "bytes4"
        }
      ],
      "name": "supportsInterface",
      "outputs": [
        {
          "name": "",
          "type": "bool"
        }
      ],
      "payable": false,
      "stateMutability": "view",
      "type": "function"
    },
    {
      "constant": true,
      "inputs": [],
      "name": "name",
      "outputs": [
        {
          "name": "",
          "type": "string"
        }
      ],
      "payable": false,
      "stateMutability": "view",
      "type": "function"
    },
    {
      "constant": true,
      "inputs": [
        {
          "name": "tokenId",
          "type": "uint256"
        }
      ],
      "name": "getApproved",
      "outputs": [
        {
          "name": "",
          "type": "address"
        }
      ],
      "payable": false,
      "stateMutability": "view",
      "type": "function"
    },
    {
      "constant": false,
      "inputs": [
        {
          "name": "to",
          "type": "address"
        },
        {
          "name": "tokenId",
          "type": "uint256"
        }
      ],
      "name": "approve",
      "outputs": [],
      "payable": false,
      "stateMutability": "nonpayable",
      "type": "function"
    },
    {
      "constant": true,
      "inputs": [],
      "name": "totalSupply",
      "outputs": [
        {
          "name": "",
          "type": "uint256"
        }
      ],
      "payable": false,
      "stateMutability": "view",
      "type": "function"
    },
    {
      "constant": false,
      "inputs": [
        {
          "name": "from",
          "type": "address"
        },
        {
          "name": "to",
          "type": "address"
        },
        {
          "name": "tokenId",
          "type": "uint256"
        }
      ],
      "name": "transferFrom",
      "outputs": [],
      "payable": false,
      "stateMutability": "nonpayable",
      "type": "function"
    },
    {
      "constant": true,
      "inputs": [
        {
          "name": "owner",
          "type": "address"
        },
        {
          "name": "index",
          "type": "uint256"
        }
      ],
      "name": "tokenOfOwnerByIndex",
      "outputs": [
        {
          "name": "",
          "type": "uint256"
        }
      ],
      "payable": false,
      "stateMutability": "view",
      "type": "function"
    },
    {
      "constant": false,
      "inputs": [
        {
          "name": "from",
          "type": "address"
        },
        {
          "name": "to",
          "type": "address"
        },
        {
          "name": "tokenId",
          "type": "uint256"
        }
      ],
      "name": "safeTransferFrom",
      "outputs": [],
      "payable": false,
      "stateMutability": "nonpayable",
      "type": "function"
    },
    {
      "constant": true,
      "inputs": [
        {
          "name": "index",
          "type": "uint256"
        }
      ],
      "name": "tokenByIndex",
      "outputs": [
        {
          "name": "",
          "type": "uint256"
        }
      ],
      "payable": false,
      "stateMutability": "view",
      "type": "function"
    },
    {
      "constant": true,
      "inputs": [
        {
          "name": "tokenId",
          "type": "uint256"
        }
      ],
      "name": "ownerOf",
      "outputs": [
        {
          "name": "",
          "type": "address"
        }
      ],
      "payable": false,
      "stateMutability": "view",
      "type": "function"
    },
    {
      "constant": true,
      "inputs": [
        {
          "name": "owner",
          "type": "address"
        }
      ],
      "name": "balanceOf",
      "outputs": [
        {
          "name": "",
          "type": "uint256"
        }
      ],
      "payable": false,
      "stateMutability": "view",
      "type": "function"
    },
    {
      "constant": false,
      "inputs": [],
      "name": "renounceOwnership",
      "outputs": [],
      "payable": false,
      "stateMutability": "nonpayable",
      "type": "function"
    },
    {
      "constant": false,
      "inputs": [
        {
          "name": "tokenAddress",
          "type": "address"
        },
        {
          "name": "tokenAmount",
          "type": "uint256"
        }
      ],
      "name": "recoverERC20",
      "outputs": [],
      "payable": false,
      "stateMutability": "nonpayable",
      "type": "function"
    },
    {
      "constant": true,
      "inputs": [],
      "name": "owner",
      "outputs": [
        {
          "name": "",
          "type": "address"
        }
      ],
      "payable": false,
      "stateMutability": "view",
      "type": "function"
    },
    {
      "constant": true,
      "inputs": [],
      "name": "isOwner",
      "outputs": [
        {
          "name": "",
          "type": "bool"
        }
      ],
      "payable": false,
      "stateMutability": "view",
      "type": "function"
    },
    {
      "constant": true,
      "inputs": [],
      "name": "symbol",
      "outputs": [
        {
          "name": "",
          "type": "string"
        }
      ],
      "payable": false,
      "stateMutability": "view",
      "type": "function"
    },
    {
      "constant": false,
      "inputs": [
        {
          "name": "account",
          "type": "address"
        }
      ],
      "name": "addMinter",
      "outputs": [],
      "payable": false,
      "stateMutability": "nonpayable",
      "type": "function"
    },
    {
      "constant": false,
      "inputs": [],
      "name": "renounceMinter",
      "outputs": [],
      "payable": false,
      "stateMutability": "nonpayable",
      "type": "function"
    },
    {
      "constant": false,
      "inputs": [
        {
          "name": "to",
          "type": "address"
        },
        {
          "name": "approved",
          "type": "bool"
        }
      ],
      "name": "setApprovalForAll",
      "outputs": [],
      "payable": false,
      "stateMutability": "nonpayable",
      "type": "function"
    },
    {
      "constant": true,
      "inputs": [
        {
          "name": "account",
          "type": "address"
        }
      ],
      "name": "isMinter",
      "outputs": [
        {
          "name": "",
          "type": "bool"
        }
      ],
      "payable": false,
      "stateMutability": "view",
      "type": "function"
    },
    {
      "constant": false,
      "inputs": [
        {
          "name": "from",
          "type": "address"
        },
        {
          "name": "to",
          "type": "address"
        },
        {
          "name": "tokenId",
          "type": "uint256"
        },
        {
          "name": "_data",
          "type": "bytes"
        }
      ],
      "name": "safeTransferFrom",
      "outputs": [],
      "payable": false,
      "stateMutability": "nonpayable",
      "type": "function"
    },
    {
      "constant": true,
      "inputs": [
        {
          "name": "tokenId",
          "type": "uint256"
        }
      ],
      "name": "tokenURI",
      "outputs": [
        {
          "name": "",
          "type": "string"
        }
      ],
      "payable": false,
      "stateMutability": "view",
      "type": "function"
    },
    {
      "constant": true,
      "inputs": [
        {
          "name": "owner",
          "type": "address"
        },
        {
          "name": "operator",
          "type": "address"
        }
      ],
      "name": "isApprovedForAll",
      "outputs": [
        {
          "name": "",
          "type": "bool"
        }
      ],
      "payable": false,
      "stateMutability": "view",
      "type": "function"
    },
    {
      "constant": false,
      "inputs": [
        {
          "name": "newOwner",
          "type": "address"
        }
      ],
      "name": "transferOwnership",
      "outputs": [],
      "payable": false,
      "stateMutability": "nonpayable",
      "type": "function"
    },
    {
      "inputs": [
        {
          "name": "name",
          "type": "string"
        },
        {
          "name": "symbol",
          "type": "string"
        },
        {
          "name": "maxSupply",
          "type": "uint256"
        }
      ],
      "payable": false,
      "stateMutability": "nonpayable",
      "type": "constructor"
    },
    {
      "anonymous": false,
      "inputs": [
        {
          "indexed": true,
          "name": "previousOwner",
          "type": "address"
        },
        {
          "indexed": true,
          "name": "newOwner",
          "type": "address"
        }
      ],
      "name": "OwnershipTransferred",
      "type": "event"
    },
    {
      "anonymous": false,
      "inputs": [
        {
          "indexed": true,
          "name": "account",
          "type": "address"
        }
      ],
      "name": "MinterAdded",
      "type": "event"
    },
    {
      "anonymous": false,
      "inputs": [
        {
          "indexed": true,
          "name": "account",
          "type": "address"
        }
      ],
      "name": "MinterRemoved",
      "type": "event"
    },
    {
      "anonymous": false,
      "inputs": [
        {
          "indexed": true,
          "name": "from",
          "type": "address"
        },
        {
          "indexed": true,
          "name": "to",
          "type": "address"
        },
        {
          "indexed": true,
          "name": "tokenId",
          "type": "uint256"
        }
      ],
      "name": "Transfer",
      "type": "event"
    },
    {
      "anonymous": false,
      "inputs": [
        {
          "indexed": true,
          "name": "owner",
          "type": "address"
        },
        {
          "indexed": true,
          "name": "approved",
          "type": "address"
        },
        {
          "indexed": true,
          "name": "tokenId",
          "type": "uint256"
        }
      ],
      "name": "Approval",
      "type": "event"
    },
    {
      "anonymous": false,
      "inputs": [
        {
          "indexed": true,
          "name": "owner",
          "type": "address"
        },
        {
          "indexed": true,
          "name": "operator",
          "type": "address"
        },
        {
          "indexed": false,
          "name": "approved",
          "type": "bool"
        }
      ],
      "name": "ApprovalForAll",
      "type": "event"
    },
    {
      "constant": true,
      "inputs": [],
      "name": "styles",
      "outputs": [
        {
          "name": "",
          "type": "uint256"
        }
      ],
      "payable": false,
      "stateMutability": "view",
      "type": "function"
    },
    {
      "constant": true,
      "inputs": [],
      "name": "progressiveId",
      "outputs": [
        {
          "name": "",
          "type": "uint256"
        }
      ],
      "payable": false,
      "stateMutability": "view",
      "type": "function"
    },
    {
      "constant": true,
      "inputs": [],
      "name": "maxSupply",
      "outputs": [
        {
          "name": "",
          "type": "uint256"
        }
      ],
      "payable": false,
      "stateMutability": "view",
      "type": "function"
    },
    {
      "constant": false,
      "inputs": [
        {
          "name": "amount",
          "type": "uint256"
        },
        {
          "name": "purchaser",
          "type": "address"
        },
        {
          "name": "beneficiary",
          "type": "address"
        },
        {
          "name": "content",
          "type": "string"
        },
        {
          "name": "date",
          "type": "uint256"
        },
        {
          "name": "style",
          "type": "uint256"
        }
      ],
      "name": "newToken",
      "outputs": [
        {
          "name": "",
          "type": "uint256"
        }
      ],
      "payable": false,
      "stateMutability": "nonpayable",
      "type": "function"
    },
    {
      "constant": true,
      "inputs": [
        {
          "name": "tokenId",
          "type": "uint256"
        }
      ],
      "name": "isVisible",
      "outputs": [
        {
          "name": "visible",
          "type": "bool"
        },
        {
          "name": "date",
          "type": "uint256"
        }
      ],
      "payable": false,
      "stateMutability": "view",
      "type": "function"
    },
    {
      "constant": true,
      "inputs": [
        {
          "name": "tokenId",
          "type": "uint256"
        }
      ],
      "name": "getGift",
      "outputs": [
        {
          "name": "amount",
          "type": "uint256"
        },
        {
          "name": "purchaser",
          "type": "address"
        },
        {
          "name": "beneficiary",
          "type": "address"
        },
        {
          "name": "content",
          "type": "string"
        },
        {
          "name": "date",
          "type": "uint256"
        },
        {
          "name": "style",
          "type": "uint256"
        }
      ],
      "payable": false,
      "stateMutability": "view",
      "type": "function"
    },
    {
      "constant": false,
      "inputs": [
        {
          "name": "tokenId",
          "type": "uint256"
        }
      ],
      "name": "burn",
      "outputs": [],
      "payable": false,
      "stateMutability": "nonpayable",
      "type": "function"
    },
    {
      "constant": false,
      "inputs": [
        {
          "name": "newStyles",
          "type": "uint256"
        }
      ],
      "name": "setStyles",
      "outputs": [],
      "payable": false,
      "stateMutability": "nonpayable",
      "type": "function"
    }
  ],
  "bytecode": "0x60806040523480156200001157600080fd5b50604051620020b3380380620020b3833981016040908152815160208301519183015190830192919091019082828181620000757f01ffc9a700000000000000000000000000000000000000000000000000000000640100000000620001b3810204565b620000a97f80ac58cd00000000000000000000000000000000000000000000000000000000640100000000620001b3810204565b620000dd7f780e9d6300000000000000000000000000000000000000000000000000000000640100000000620001b3810204565b8151620000f290600990602085019062000305565b5080516200010890600a90602084019062000305565b506200013d7f5b5e139f00000000000000000000000000000000000000000000000000000000640100000000620001b3810204565b505050506200015b3362000220640100000000026401000000009004565b600d8054600160a060020a031916331790819055604051600160a060020a0391909116906000907f8be0079c531659141344cd1fd0a4f28419497f9722a3daafe3b4186f6b6457e0908290a360105550620003aa9050565b7fffffffff000000000000000000000000000000000000000000000000000000008082161415620001e357600080fd5b7fffffffff00000000000000000000000000000000000000000000000000000000166000908152602081905260409020805460ff19166001179055565b6200023b600c8264010000000062001adf6200027282021704565b604051600160a060020a038216907f6ae172837ea30b801fbfcdd4108aa1d5bf8ff775444fd70256b44e6bf3dfc3f690600090a250565b600160a060020a03811615156200028857600080fd5b6200029d8282640100000000620002cd810204565b15620002a857600080fd5b600160a060020a0316600090815260209190915260409020805460ff19166001179055565b6000600160a060020a0382161515620002e557600080fd5b50600160a060020a03166000908152602091909152604090205460ff1690565b828054600181600116156101000203166002900490600052602060002090601f016020900481019282601f106200034857805160ff191683800117855562000378565b8280016001018555821562000378579182015b82811115620003785782518255916020019190600101906200035b565b50620003869291506200038a565b5090565b620003a791905b8082111562000386576000815560010162000391565b90565b611cf980620003ba6000396000f3006080604052600436106101955763ffffffff7c010000000000000000000000000000000000000000000000000000000060003504166301ffc9a7811461019a57806306fdde03146101e5578063081812fc1461026f578063095ea7b3146102a357806318160ddd146102c957806323b872dd146102f05780632f745c591461031a57806331443e1b1461033e57806342842e0e146103b857806342966c68146103e25780634d7ab293146103fa5780634f6ccce7146104125780636352211e1461042a5780636a9f9ff91461044257806370a0823114610475578063715018a614610496578063786f94c6146104ab5780638980f11f146104c05780638da5cb5b146104e45780638f32d59b146104f957806395d89b411461050e578063983b2d56146105235780639865027514610544578063a22cb46514610559578063aa271e1a1461057f578063b88d4fde146105a0578063bf6713f61461060f578063c3b909d7146106e6578063c87b56dd146106fb578063d5abeb0114610713578063e985e9c514610728578063f2fde38b1461074f575b600080fd5b3480156101a657600080fd5b506101d17bffffffffffffffffffffffffffffffffffffffffffffffffffffffff1960043516610770565b604080519115158252519081900360200190f35b3480156101f157600080fd5b506101fa6107a4565b6040805160208082528351818301528351919283929083019185019080838360005b8381101561023457818101518382015260200161021c565b50505050905090810190601f1680156102615780820380516001836020036101000a031916815260200191505b509250505060405180910390f35b34801561027b57600080fd5b5061028760043561083b565b60408051600160a060020a039092168252519081900360200190f35b3480156102af57600080fd5b506102c7600160a060020a036004351660243561086d565b005b3480156102d557600080fd5b506102de610916565b60408051918252519081900360200190f35b3480156102fc57600080fd5b506102c7600160a060020a036004358116906024351660443561091c565b34801561032657600080fd5b506102de600160a060020a03600435166024356109aa565b34801561034a57600080fd5b50604080516020601f6064356004818101359283018490048402850184019095528184526102de94803594600160a060020a03602480358216966044359092169536956084949392019181908401838280828437509497505084359550505060209092013591506109f79050565b3480156103c457600080fd5b506102c7600160a060020a0360043581169060243516604435610bda565b3480156103ee57600080fd5b506102c7600435610bfb565b34801561040657600080fd5b506102c7600435610c69565b34801561041e57600080fd5b506102de600435610cdb565b34801561043657600080fd5b50610287600435610d10565b34801561044e57600080fd5b5061045a600435610d3a565b60408051921515835260208301919091528051918290030190f35b34801561048157600080fd5b506102de600160a060020a0360043516610d7c565b3480156104a257600080fd5b506102c7610daf565b3480156104b757600080fd5b506102de610e0c565b3480156104cc57600080fd5b506102c7600160a060020a0360043516602435610e12565b3480156104f057600080fd5b50610287610ed8565b34801561050557600080fd5b506101d1610ee7565b34801561051a57600080fd5b506101fa610ef8565b34801561052f57600080fd5b506102c7600160a060020a0360043516610f59565b34801561055057600080fd5b506102c7610f79565b34801561056557600080fd5b506102c7600160a060020a03600435166024351515610f84565b34801561058b57600080fd5b506101d1600160a060020a0360043516611008565b3480156105ac57600080fd5b50604080516020601f6064356004818101359283018490048402850184019095528184526102c794600160a060020a03813581169560248035909216956044359536956084940191819084018382808284375094975061101b9650505050505050565b34801561061b57600080fd5b5061062760043561103d565b6040518087815260200186600160a060020a0316600160a060020a0316815260200185600160a060020a0316600160a060020a0316815260200180602001848152602001838152602001828103825285818151815260200191508051906020019080838360005b838110156106a657818101518382015260200161068e565b50505050905090810190601f1680156106d35780820380516001836020036101000a031916815260200191505b5097505050505050505060405180910390f35b3480156106f257600080fd5b506102de611200565b34801561070757600080fd5b506101fa600435611206565b34801561071f57600080fd5b506102de6112bb565b34801561073457600080fd5b506101d1600160a060020a03600435811690602435166112c1565b34801561075b57600080fd5b506102c7600160a060020a03600435166112ef565b7bffffffffffffffffffffffffffffffffffffffffffffffffffffffff191660009081526020819052604090205460ff1690565b60098054604080516020601f60026000196101006001881615020190951694909404938401819004810282018101909252828152606093909290918301828280156108305780601f1061080557610100808354040283529160200191610830565b820191906000526020600020905b81548152906001019060200180831161081357829003601f168201915b505050505090505b90565b60006108468261130b565b151561085157600080fd5b50600090815260026020526040902054600160a060020a031690565b600061087882610d10565b9050600160a060020a03838116908216141561089357600080fd5b33600160a060020a03821614806108af57506108af81336112c1565b15156108ba57600080fd5b6000828152600260205260408082208054600160a060020a031916600160a060020a0387811691821790925591518593918516917f8c5be1e5ebec7d5bd14f71427d1e84f3dd0314c0f7b2291e5b200ac8c7c3b92591a4505050565b60075490565b6109263382611328565b151561093157600080fd5b600160a060020a038216151561094657600080fd5b6109508382611387565b61095a83826113eb565b61096482826114f2565b8082600160a060020a031684600160a060020a03167fddf252ad1be2c89b69c2b068fc378daa952ba7f163c4a11628f55a4df523b3ef60405160405180910390a4505050565b60006109b583610d7c565b82106109c057600080fd5b600160a060020a03831660009081526005602052604090208054839081106109e457fe5b9060005260206000200154905092915050565b600080601054600f54101515610a57576040805160e560020a62461bcd02815260206004820152601860248201527f4d617820746f6b656e20737570706c7920726561636865640000000000000000604482015290519081900360640190fd5b610a6033611008565b1515610a6b57600080fd5b60008411610ac3576040805160e560020a62461bcd02815260206004820152601e60248201527f44617465206d7573742062652067726561746572207468616e207a65726f0000604482015290519081900360640190fd5b600e54831115610b1d576040805160e560020a62461bcd02815260206004820152601660248201527f5374796c65206973206e6f7420617661696c61626c6500000000000000000000604482015290519081900360640190fd5b600f54610b3190600163ffffffff61153b16565b9050610b3d8682611554565b6040805160a081018252898152600160a060020a0389811660208084019182528385018a8152606085018a90526080850189905260008781526011835295909520845181559151600183018054600160a060020a031916919094161790925592518051929392610bb39260028501920190611bd1565b5060608201516003820155608090910151600490910155600f819055979650505050505050565b610bf6838383602060405190810160405280600081525061101b565b505050565b6000610c05610ee7565b610c0f5733610c18565b610c1882610d10565b9050610c2481836115a3565b6000828152601160205260408120818155600181018054600160a060020a031916905590610c556002830182611c4f565b506000600382018190556004909101555050565b610c7233611008565b1515610c7d57600080fd5b600e548111610cd6576040805160e560020a62461bcd02815260206004820152601a60248201527f5374796c65732063616e6e6f7420626520646563726561736564000000000000604482015290519081900360640190fd5b600e55565b6000610ce5610916565b8210610cf057600080fd5b6007805483908110610cfe57fe5b90600052602060002001549050919050565b600081815260016020526040812054600160a060020a0316801515610d3457600080fd5b92915050565b6000806000610d488461130b565b15610d6d57505050600081815260116020526040902060038101544281111591610d76565b60009250600091505b50915091565b6000600160a060020a0382161515610d9357600080fd5b50600160a060020a031660009081526003602052604090205490565b610db7610ee7565b1515610dc257600080fd5b600d54604051600091600160a060020a0316907f8be0079c531659141344cd1fd0a4f28419497f9722a3daafe3b4186f6b6457e0908390a3600d8054600160a060020a0319169055565b600e5490565b610e1a610ee7565b1515610e2557600080fd5b81600160a060020a031663a9059cbb610e3c610ed8565b836040518363ffffffff167c01000000000000000000000000000000000000000000000000000000000281526004018083600160a060020a0316600160a060020a0316815260200182815260200192505050602060405180830381600087803b158015610ea857600080fd5b505af1158015610ebc573d6000803e3d6000fd5b505050506040513d6020811015610ed257600080fd5b50505050565b600d54600160a060020a031690565b600d54600160a060020a0316331490565b600a8054604080516020601f60026000196101006001881615020190951694909404938401819004810282018101909252828152606093909290918301828280156108305780601f1061080557610100808354040283529160200191610830565b610f6233611008565b1515610f6d57600080fd5b610f76816115eb565b50565b610f8233611633565b565b600160a060020a038216331415610f9a57600080fd5b336000818152600460209081526040808320600160a060020a03871680855290835292819020805460ff1916861515908117909155815190815290519293927f17307eab39ab6107e8899845ad3d59bd9653f200f220920489ca2b5937696c31929181900390910190a35050565b6000610d34600c8363ffffffff61167b16565b61102684848461091c565b611032848484846116b2565b1515610ed257600080fd5b6000806000606060008060006110528861130b565b15156110a8576040805160e560020a62461bcd02815260206004820152601160248201527f546f6b656e206d75737420657869737473000000000000000000000000000000604482015290519081900360640190fd5b5060008781526011602052604090206003810154421015611138576040805160e560020a62461bcd028152602060048201526024808201527f4e6f772073686f756c642062652067726561746572207468616e20676966742060448201527f6461746500000000000000000000000000000000000000000000000000000000606482015290519081900360840190fd5b80546001820154909750600160a060020a0316955061115688610d10565b60028083018054604080516020601f600019610100600187161502019094169590950492830185900485028101850190915281815293985090918301828280156111e15780601f106111b6576101008083540402835291602001916111e1565b820191906000526020600020905b8154815290600101906020018083116111c457829003601f168201915b5050505050935080600301549250806004015491505091939550919395565b600f5490565b60606112118261130b565b151561121c57600080fd5b6000828152600b602090815260409182902080548351601f6002600019610100600186161502019093169290920491820184900484028101840190945280845290918301828280156112af5780601f10611284576101008083540402835291602001916112af565b820191906000526020600020905b81548152906001019060200180831161129257829003601f168201915b50505050509050919050565b60105490565b600160a060020a03918216600090815260046020908152604080832093909416825291909152205460ff1690565b6112f7610ee7565b151561130257600080fd5b610f7681611834565b600090815260016020526040902054600160a060020a0316151590565b60008061133483610d10565b905080600160a060020a031684600160a060020a0316148061136f575083600160a060020a03166113648461083b565b600160a060020a0316145b8061137f575061137f81856112c1565b949350505050565b81600160a060020a031661139a82610d10565b600160a060020a0316146113ad57600080fd5b600081815260026020526040902054600160a060020a0316156113e75760008181526002602052604090208054600160a060020a03191690555b5050565b60008060006113fa85856118a5565b600084815260066020908152604080832054600160a060020a038916845260059092529091205490935061143590600163ffffffff61192e16565b600160a060020a03861660009081526005602052604090208054919350908390811061145d57fe5b90600052602060002001549050806005600087600160a060020a0316600160a060020a031681526020019081526020016000208481548110151561149d57fe5b6000918252602080832090910192909255600160a060020a03871681526005909152604090208054906114d4906000198301611c93565b50600093845260066020526040808520859055908452909220555050565b60006114fe8383611945565b50600160a060020a039091166000908152600560209081526040808320805460018101825590845282842081018590559383526006909152902055565b60008282018381101561154d57600080fd5b9392505050565b61155e82826119c8565b600780546000838152600860205260408120829055600182018355919091527fa66cc928b5edb82af9bd49922954155ab7b0942694bea4ce44661d9a8736c688015550565b6115ad8282611a23565b6000818152600b602052604090205460026000196101006001841615020190911604156113e7576000818152600b602052604081206113e791611c4f565b6115fc600c8263ffffffff611adf16565b604051600160a060020a038216907f6ae172837ea30b801fbfcdd4108aa1d5bf8ff775444fd70256b44e6bf3dfc3f690600090a250565b611644600c8263ffffffff611b2d16565b604051600160a060020a038216907fe94479a9f7e1952cc78f2d6baab678adc1b772d936c6583def489e524cb6669290600090a250565b6000600160a060020a038216151561169257600080fd5b50600160a060020a03166000908152602091909152604090205460ff1690565b6000806116c785600160a060020a0316611b79565b15156116d6576001915061182b565b6040517f150b7a020000000000000000000000000000000000000000000000000000000081523360048201818152600160a060020a03898116602485015260448401889052608060648501908152875160848601528751918a169463150b7a0294938c938b938b93909160a490910190602085019080838360005b83811015611769578181015183820152602001611751565b50505050905090810190601f1680156117965780820380516001836020036101000a031916815260200191505b5095505050505050602060405180830381600087803b1580156117b857600080fd5b505af11580156117cc573d6000803e3d6000fd5b505050506040513d60208110156117e257600080fd5b50517bffffffffffffffffffffffffffffffffffffffffffffffffffffffff1981167f150b7a020000000000000000000000000000000000000000000000000000000014925090505b50949350505050565b600160a060020a038116151561184957600080fd5b600d54604051600160a060020a038084169216907f8be0079c531659141344cd1fd0a4f28419497f9722a3daafe3b4186f6b6457e090600090a3600d8054600160a060020a031916600160a060020a0392909216919091179055565b81600160a060020a03166118b882610d10565b600160a060020a0316146118cb57600080fd5b600160a060020a0382166000908152600360205260409020546118f590600163ffffffff61192e16565b600160a060020a039092166000908152600360209081526040808320949094559181526001909152208054600160a060020a0319169055565b6000808383111561193e57600080fd5b5050900390565b600081815260016020526040902054600160a060020a03161561196757600080fd5b60008181526001602081815260408084208054600160a060020a031916600160a060020a03881690811790915584526003909152909120546119a89161153b565b600160a060020a0390921660009081526003602052604090209190915550565b600160a060020a03821615156119dd57600080fd5b6119e782826114f2565b6040518190600160a060020a038416906000907fddf252ad1be2c89b69c2b068fc378daa952ba7f163c4a11628f55a4df523b3ef908290a45050565b6000806000611a328585611b81565b600084815260086020526040902054600754909350611a5890600163ffffffff61192e16565b9150600782815481101515611a6957fe5b9060005260206000200154905080600784815481101515611a8657fe5b60009182526020822001919091556007805484908110611aa257fe5b6000918252602090912001556007805490611ac1906000198301611c93565b50600093845260086020526040808520859055908452909220555050565b600160a060020a0381161515611af457600080fd5b611afe828261167b565b15611b0857600080fd5b600160a060020a0316600090815260209190915260409020805460ff19166001179055565b600160a060020a0381161515611b4257600080fd5b611b4c828261167b565b1515611b5757600080fd5b600160a060020a0316600090815260209190915260409020805460ff19169055565b6000903b1190565b611b8b8282611387565b611b9582826113eb565b6040518190600090600160a060020a038516907fddf252ad1be2c89b69c2b068fc378daa952ba7f163c4a11628f55a4df523b3ef908390a45050565b828054600181600116156101000203166002900490600052602060002090601f016020900481019282601f10611c1257805160ff1916838001178555611c3f565b82800160010185558215611c3f579182015b82811115611c3f578251825591602001919060010190611c24565b50611c4b929150611cb3565b5090565b50805460018160011615610100020316600290046000825580601f10611c755750610f76565b601f016020900490600052602060002090810190610f769190611cb3565b815481835581811115610bf657600083815260209020610bf69181019083015b61083891905b80821115611c4b5760008155600101611cb95600a165627a7a7230582068c293dc0474d99090b7f987e62ddd15aee20a491d6a7b7ddc896c0c9614f2940029",
  "source": "pragma solidity ^0.4.24;\n\nimport \"openzeppelin-solidity/contracts/token/ERC721/ERC721Full.sol\";\nimport \"openzeppelin-solidity/contracts/access/roles/MinterRole.sol\";\nimport \"eth-token-recover/contracts/TokenRecover.sol\";\n\ncontract CryptoGiftToken is ERC721Full, MinterRole, TokenRecover {\n  struct GiftStructure {\n    uint256 amount;\n    address purchaser;\n    string content;\n    uint256 date;\n    uint256 style;\n  }\n\n  uint256 private _styles;\n  uint256 private _progressiveId;\n  uint256 private _maxSupply;\n\n  // Mapping from token ID to the structures\n  mapping(uint256 => GiftStructure) private _structureIndex;\n\n  modifier canGenerate() {\n    require(\n      _progressiveId < _maxSupply,\n      \"Max token supply reached\"\n    );\n    _;\n  }\n\n  constructor(\n    string name,\n    string symbol,\n    uint256 maxSupply\n  )\n    public\n    ERC721Full(name, symbol)\n  {\n    _maxSupply = maxSupply;\n  }\n\n  function styles() public view returns (uint256) {\n    return _styles;\n  }\n\n  function progressiveId() public view returns (uint256) {\n    return _progressiveId;\n  }\n\n  function maxSupply() public view returns (uint256) {\n    return _maxSupply;\n  }\n\n  function newToken(\n    uint256 amount,\n    address purchaser,\n    address beneficiary,\n    string content,\n    uint256 date,\n    uint256 style\n  )\n    public\n    canGenerate\n    onlyMinter\n    returns (uint256)\n  {\n    require(\n      date > 0,\n      \"Date must be greater than zero\"\n    );\n    require(\n      style <= _styles,\n      \"Style is not available\"\n    );\n    uint256 tokenId = _progressiveId.add(1);\n    _mint(beneficiary, tokenId);\n    _structureIndex[tokenId] = GiftStructure(\n      amount,\n      purchaser,\n      content,\n      date,\n      style\n    );\n    _progressiveId = tokenId;\n    return tokenId;\n  }\n\n  function isVisible (\n    uint256 tokenId\n  )\n    public\n    view\n    returns (bool visible, uint256 date)\n  {\n    if (_exists(tokenId)) {\n      GiftStructure storage gift = _structureIndex[tokenId];\n\n      // solium-disable-next-line security/no-block-members\n      visible = block.timestamp >= gift.date;\n      date = gift.date;\n    } else {\n      visible = false;\n      date = 0;\n    }\n  }\n\n  function getGift (uint256 tokenId)\n    public\n    view\n    returns (\n      uint256 amount,\n      address purchaser,\n      address beneficiary,\n      string content,\n      uint256 date,\n      uint256 style\n    )\n  {\n    require(\n      _exists(tokenId),\n      \"Token must exists\"\n    );\n\n    GiftStructure storage gift = _structureIndex[tokenId];\n\n    require(\n      block.timestamp >= gift.date, // solium-disable-line security/no-block-members\n      \"Now should be greater than gift date\"\n    );\n\n    amount = gift.amount;\n    purchaser = gift.purchaser;\n    beneficiary = ownerOf(tokenId);\n    content = gift.content;\n    date = gift.date;\n    style = gift.style;\n  }\n\n  /**\n   * @dev Only contract owner or token owner can burn\n   */\n  function burn(uint256 tokenId) public {\n    address tokenOwner = isOwner() ? ownerOf(tokenId) : msg.sender;\n    super._burn(tokenOwner, tokenId);\n    delete _structureIndex[tokenId];\n  }\n\n  /**\n   * @dev Set the max amount of styles available\n   */\n  function setStyles(uint256 newStyles) public onlyMinter {\n    require(\n      newStyles > _styles,\n      \"Styles cannot be decreased\"\n    );\n    _styles = newStyles;\n  }\n}\n",
  "sourcePath": "/Users/vittominacori/Projects/vittominacori.github.io/cryptogift/cryptogift-smartcontracts/contracts/token/CryptoGiftToken.sol",
  "compiler": {
    "name": "solc",
    "version": "0.4.24+commit.e67f0147.Emscripten.clang"
  },
  "schemaVersion": "2.0.1",
  "updatedAt": "2018-11-05T20:56:27.321Z"
}