{
  "contractName": "CryptoGiftToken",
  "abi": [
    {
      "constant": true,
      "inputs": [
        {
          "name": "interfaceId",
          "type": "bytes4"
        }
      ],
      "name": "supportsInterface",
      "outputs": [
        {
          "name": "",
          "type": "bool"
        }
      ],
      "payable": false,
      "stateMutability": "view",
      "type": "function"
    },
    {
      "constant": true,
      "inputs": [],
      "name": "name",
      "outputs": [
        {
          "name": "",
          "type": "string"
        }
      ],
      "payable": false,
      "stateMutability": "view",
      "type": "function"
    },
    {
      "constant": true,
      "inputs": [
        {
          "name": "tokenId",
          "type": "uint256"
        }
      ],
      "name": "getApproved",
      "outputs": [
        {
          "name": "",
          "type": "address"
        }
      ],
      "payable": false,
      "stateMutability": "view",
      "type": "function"
    },
    {
      "constant": false,
      "inputs": [
        {
          "name": "to",
          "type": "address"
        },
        {
          "name": "tokenId",
          "type": "uint256"
        }
      ],
      "name": "approve",
      "outputs": [],
      "payable": false,
      "stateMutability": "nonpayable",
      "type": "function"
    },
    {
      "constant": true,
      "inputs": [],
      "name": "totalSupply",
      "outputs": [
        {
          "name": "",
          "type": "uint256"
        }
      ],
      "payable": false,
      "stateMutability": "view",
      "type": "function"
    },
    {
      "constant": false,
      "inputs": [
        {
          "name": "from",
          "type": "address"
        },
        {
          "name": "to",
          "type": "address"
        },
        {
          "name": "tokenId",
          "type": "uint256"
        }
      ],
      "name": "transferFrom",
      "outputs": [],
      "payable": false,
      "stateMutability": "nonpayable",
      "type": "function"
    },
    {
      "constant": true,
      "inputs": [
        {
          "name": "owner",
          "type": "address"
        },
        {
          "name": "index",
          "type": "uint256"
        }
      ],
      "name": "tokenOfOwnerByIndex",
      "outputs": [
        {
          "name": "",
          "type": "uint256"
        }
      ],
      "payable": false,
      "stateMutability": "view",
      "type": "function"
    },
    {
      "constant": false,
      "inputs": [
        {
          "name": "from",
          "type": "address"
        },
        {
          "name": "to",
          "type": "address"
        },
        {
          "name": "tokenId",
          "type": "uint256"
        }
      ],
      "name": "safeTransferFrom",
      "outputs": [],
      "payable": false,
      "stateMutability": "nonpayable",
      "type": "function"
    },
    {
      "constant": true,
      "inputs": [
        {
          "name": "index",
          "type": "uint256"
        }
      ],
      "name": "tokenByIndex",
      "outputs": [
        {
          "name": "",
          "type": "uint256"
        }
      ],
      "payable": false,
      "stateMutability": "view",
      "type": "function"
    },
    {
      "constant": true,
      "inputs": [
        {
          "name": "tokenId",
          "type": "uint256"
        }
      ],
      "name": "ownerOf",
      "outputs": [
        {
          "name": "",
          "type": "address"
        }
      ],
      "payable": false,
      "stateMutability": "view",
      "type": "function"
    },
    {
      "constant": true,
      "inputs": [
        {
          "name": "owner",
          "type": "address"
        }
      ],
      "name": "balanceOf",
      "outputs": [
        {
          "name": "",
          "type": "uint256"
        }
      ],
      "payable": false,
      "stateMutability": "view",
      "type": "function"
    },
    {
      "constant": false,
      "inputs": [],
      "name": "renounceOwnership",
      "outputs": [],
      "payable": false,
      "stateMutability": "nonpayable",
      "type": "function"
    },
    {
      "constant": false,
      "inputs": [
        {
          "name": "tokenAddress",
          "type": "address"
        },
        {
          "name": "tokenAmount",
          "type": "uint256"
        }
      ],
      "name": "recoverERC20",
      "outputs": [],
      "payable": false,
      "stateMutability": "nonpayable",
      "type": "function"
    },
    {
      "constant": true,
      "inputs": [],
      "name": "owner",
      "outputs": [
        {
          "name": "",
          "type": "address"
        }
      ],
      "payable": false,
      "stateMutability": "view",
      "type": "function"
    },
    {
      "constant": true,
      "inputs": [],
      "name": "isOwner",
      "outputs": [
        {
          "name": "",
          "type": "bool"
        }
      ],
      "payable": false,
      "stateMutability": "view",
      "type": "function"
    },
    {
      "constant": true,
      "inputs": [],
      "name": "symbol",
      "outputs": [
        {
          "name": "",
          "type": "string"
        }
      ],
      "payable": false,
      "stateMutability": "view",
      "type": "function"
    },
    {
      "constant": false,
      "inputs": [
        {
          "name": "account",
          "type": "address"
        }
      ],
      "name": "addMinter",
      "outputs": [],
      "payable": false,
      "stateMutability": "nonpayable",
      "type": "function"
    },
    {
      "constant": false,
      "inputs": [],
      "name": "renounceMinter",
      "outputs": [],
      "payable": false,
      "stateMutability": "nonpayable",
      "type": "function"
    },
    {
      "constant": false,
      "inputs": [
        {
          "name": "to",
          "type": "address"
        },
        {
          "name": "approved",
          "type": "bool"
        }
      ],
      "name": "setApprovalForAll",
      "outputs": [],
      "payable": false,
      "stateMutability": "nonpayable",
      "type": "function"
    },
    {
      "constant": true,
      "inputs": [
        {
          "name": "account",
          "type": "address"
        }
      ],
      "name": "isMinter",
      "outputs": [
        {
          "name": "",
          "type": "bool"
        }
      ],
      "payable": false,
      "stateMutability": "view",
      "type": "function"
    },
    {
      "constant": false,
      "inputs": [
        {
          "name": "from",
          "type": "address"
        },
        {
          "name": "to",
          "type": "address"
        },
        {
          "name": "tokenId",
          "type": "uint256"
        },
        {
          "name": "_data",
          "type": "bytes"
        }
      ],
      "name": "safeTransferFrom",
      "outputs": [],
      "payable": false,
      "stateMutability": "nonpayable",
      "type": "function"
    },
    {
      "constant": true,
      "inputs": [
        {
          "name": "tokenId",
          "type": "uint256"
        }
      ],
      "name": "tokenURI",
      "outputs": [
        {
          "name": "",
          "type": "string"
        }
      ],
      "payable": false,
      "stateMutability": "view",
      "type": "function"
    },
    {
      "constant": true,
      "inputs": [
        {
          "name": "owner",
          "type": "address"
        },
        {
          "name": "operator",
          "type": "address"
        }
      ],
      "name": "isApprovedForAll",
      "outputs": [
        {
          "name": "",
          "type": "bool"
        }
      ],
      "payable": false,
      "stateMutability": "view",
      "type": "function"
    },
    {
      "constant": false,
      "inputs": [
        {
          "name": "newOwner",
          "type": "address"
        }
      ],
      "name": "transferOwnership",
      "outputs": [],
      "payable": false,
      "stateMutability": "nonpayable",
      "type": "function"
    },
    {
      "inputs": [
        {
          "name": "name",
          "type": "string"
        },
        {
          "name": "symbol",
          "type": "string"
        },
        {
          "name": "maxSupply",
          "type": "uint256"
        }
      ],
      "payable": false,
      "stateMutability": "nonpayable",
      "type": "constructor"
    },
    {
      "anonymous": false,
      "inputs": [
        {
          "indexed": true,
          "name": "previousOwner",
          "type": "address"
        },
        {
          "indexed": true,
          "name": "newOwner",
          "type": "address"
        }
      ],
      "name": "OwnershipTransferred",
      "type": "event"
    },
    {
      "anonymous": false,
      "inputs": [
        {
          "indexed": true,
          "name": "account",
          "type": "address"
        }
      ],
      "name": "MinterAdded",
      "type": "event"
    },
    {
      "anonymous": false,
      "inputs": [
        {
          "indexed": true,
          "name": "account",
          "type": "address"
        }
      ],
      "name": "MinterRemoved",
      "type": "event"
    },
    {
      "anonymous": false,
      "inputs": [
        {
          "indexed": true,
          "name": "from",
          "type": "address"
        },
        {
          "indexed": true,
          "name": "to",
          "type": "address"
        },
        {
          "indexed": true,
          "name": "tokenId",
          "type": "uint256"
        }
      ],
      "name": "Transfer",
      "type": "event"
    },
    {
      "anonymous": false,
      "inputs": [
        {
          "indexed": true,
          "name": "owner",
          "type": "address"
        },
        {
          "indexed": true,
          "name": "approved",
          "type": "address"
        },
        {
          "indexed": true,
          "name": "tokenId",
          "type": "uint256"
        }
      ],
      "name": "Approval",
      "type": "event"
    },
    {
      "anonymous": false,
      "inputs": [
        {
          "indexed": true,
          "name": "owner",
          "type": "address"
        },
        {
          "indexed": true,
          "name": "operator",
          "type": "address"
        },
        {
          "indexed": false,
          "name": "approved",
          "type": "bool"
        }
      ],
      "name": "ApprovalForAll",
      "type": "event"
    },
    {
      "constant": true,
      "inputs": [],
      "name": "styles",
      "outputs": [
        {
          "name": "",
          "type": "uint256"
        }
      ],
      "payable": false,
      "stateMutability": "view",
      "type": "function"
    },
    {
      "constant": true,
      "inputs": [],
      "name": "progressiveId",
      "outputs": [
        {
          "name": "",
          "type": "uint256"
        }
      ],
      "payable": false,
      "stateMutability": "view",
      "type": "function"
    },
    {
      "constant": true,
      "inputs": [],
      "name": "maxSupply",
      "outputs": [
        {
          "name": "",
          "type": "uint256"
        }
      ],
      "payable": false,
      "stateMutability": "view",
      "type": "function"
    },
    {
      "constant": false,
      "inputs": [
        {
          "name": "amount",
          "type": "uint256"
        },
        {
          "name": "purchaser",
          "type": "address"
        },
        {
          "name": "beneficiary",
          "type": "address"
        },
        {
          "name": "content",
          "type": "string"
        },
        {
          "name": "date",
          "type": "uint256"
        },
        {
          "name": "style",
          "type": "uint256"
        }
      ],
      "name": "newGift",
      "outputs": [
        {
          "name": "",
          "type": "uint256"
        }
      ],
      "payable": false,
      "stateMutability": "nonpayable",
      "type": "function"
    },
    {
      "constant": true,
      "inputs": [
        {
          "name": "tokenId",
          "type": "uint256"
        }
      ],
      "name": "isVisible",
      "outputs": [
        {
          "name": "visible",
          "type": "bool"
        },
        {
          "name": "date",
          "type": "uint256"
        }
      ],
      "payable": false,
      "stateMutability": "view",
      "type": "function"
    },
    {
      "constant": true,
      "inputs": [
        {
          "name": "tokenId",
          "type": "uint256"
        }
      ],
      "name": "getGift",
      "outputs": [
        {
          "name": "amount",
          "type": "uint256"
        },
        {
          "name": "purchaser",
          "type": "address"
        },
        {
          "name": "beneficiary",
          "type": "address"
        },
        {
          "name": "content",
          "type": "string"
        },
        {
          "name": "date",
          "type": "uint256"
        },
        {
          "name": "style",
          "type": "uint256"
        }
      ],
      "payable": false,
      "stateMutability": "view",
      "type": "function"
    },
    {
      "constant": false,
      "inputs": [
        {
          "name": "tokenId",
          "type": "uint256"
        }
      ],
      "name": "burn",
      "outputs": [],
      "payable": false,
      "stateMutability": "nonpayable",
      "type": "function"
    },
    {
      "constant": false,
      "inputs": [
        {
          "name": "newStyles",
          "type": "uint256"
        }
      ],
      "name": "setStyles",
      "outputs": [],
      "payable": false,
      "stateMutability": "nonpayable",
      "type": "function"
    }
  ],
  "bytecode": "0x60806040523480156200001157600080fd5b50604051620020b2380380620020b2833981016040908152815160208301519183015190830192919091019082828181620000757f01ffc9a700000000000000000000000000000000000000000000000000000000640100000000620001b3810204565b620000a97f80ac58cd00000000000000000000000000000000000000000000000000000000640100000000620001b3810204565b620000dd7f780e9d6300000000000000000000000000000000000000000000000000000000640100000000620001b3810204565b8151620000f290600990602085019062000305565b5080516200010890600a90602084019062000305565b506200013d7f5b5e139f00000000000000000000000000000000000000000000000000000000640100000000620001b3810204565b505050506200015b3362000220640100000000026401000000009004565b600d8054600160a060020a031916331790819055604051600160a060020a0391909116906000907f8be0079c531659141344cd1fd0a4f28419497f9722a3daafe3b4186f6b6457e0908290a360105550620003aa9050565b7fffffffff000000000000000000000000000000000000000000000000000000008082161415620001e357600080fd5b7fffffffff00000000000000000000000000000000000000000000000000000000166000908152602081905260409020805460ff19166001179055565b6200023b600c8264010000000062001ade6200027282021704565b604051600160a060020a038216907f6ae172837ea30b801fbfcdd4108aa1d5bf8ff775444fd70256b44e6bf3dfc3f690600090a250565b600160a060020a03811615156200028857600080fd5b6200029d8282640100000000620002cd810204565b15620002a857600080fd5b600160a060020a0316600090815260209190915260409020805460ff19166001179055565b6000600160a060020a0382161515620002e557600080fd5b50600160a060020a03166000908152602091909152604090205460ff1690565b828054600181600116156101000203166002900490600052602060002090601f016020900481019282601f106200034857805160ff191683800117855562000378565b8280016001018555821562000378579182015b82811115620003785782518255916020019190600101906200035b565b50620003869291506200038a565b5090565b620003a791905b8082111562000386576000815560010162000391565b90565b611cf880620003ba6000396000f3006080604052600436106101955763ffffffff7c010000000000000000000000000000000000000000000000000000000060003504166301ffc9a7811461019a57806306fdde03146101e5578063081812fc1461026f578063095ea7b3146102a357806318160ddd146102c957806323b872dd146102f05780632f745c591461031a57806342842e0e1461033e57806342966c68146103685780634d7ab293146103805780634f6ccce714610398578063568d67e3146103b05780636352211e146103ef5780636a9f9ff91461040757806370a082311461043a578063715018a61461045b578063786f94c6146104705780638980f11f146104855780638da5cb5b146104a95780638f32d59b146104be57806395d89b41146104d3578063983b2d56146104e85780639865027514610509578063a22cb4651461051e578063aa271e1a14610544578063b88d4fde14610565578063bf6713f6146105d4578063c3b909d7146106ab578063c87b56dd146106c0578063d5abeb01146106d8578063e985e9c5146106ed578063f2fde38b14610714575b600080fd5b3480156101a657600080fd5b506101d17bffffffffffffffffffffffffffffffffffffffffffffffffffffffff1960043516610735565b604080519115158252519081900360200190f35b3480156101f157600080fd5b506101fa610769565b6040805160208082528351818301528351919283929083019185019080838360005b8381101561023457818101518382015260200161021c565b50505050905090810190601f1680156102615780820380516001836020036101000a031916815260200191505b509250505060405180910390f35b34801561027b57600080fd5b50610287600435610800565b60408051600160a060020a039092168252519081900360200190f35b3480156102af57600080fd5b506102c7600160a060020a0360043516602435610832565b005b3480156102d557600080fd5b506102de6108db565b60408051918252519081900360200190f35b3480156102fc57600080fd5b506102c7600160a060020a03600435811690602435166044356108e1565b34801561032657600080fd5b506102de600160a060020a036004351660243561096f565b34801561034a57600080fd5b506102c7600160a060020a03600435811690602435166044356109bc565b34801561037457600080fd5b506102c76004356109dd565b34801561038c57600080fd5b506102c7600435610a4b565b3480156103a457600080fd5b506102de600435610abd565b3480156103bc57600080fd5b506102de6004803590600160a060020a03602480358216926044359092169160643591820191013560843560a435610af2565b3480156103fb57600080fd5b50610287600435610d0f565b34801561041357600080fd5b5061041f600435610d39565b60408051921515835260208301919091528051918290030190f35b34801561044657600080fd5b506102de600160a060020a0360043516610d7b565b34801561046757600080fd5b506102c7610dae565b34801561047c57600080fd5b506102de610e0b565b34801561049157600080fd5b506102c7600160a060020a0360043516602435610e11565b3480156104b557600080fd5b50610287610ed7565b3480156104ca57600080fd5b506101d1610ee6565b3480156104df57600080fd5b506101fa610ef7565b3480156104f457600080fd5b506102c7600160a060020a0360043516610f58565b34801561051557600080fd5b506102c7610f78565b34801561052a57600080fd5b506102c7600160a060020a03600435166024351515610f83565b34801561055057600080fd5b506101d1600160a060020a0360043516611007565b34801561057157600080fd5b50604080516020601f6064356004818101359283018490048402850184019095528184526102c794600160a060020a03813581169560248035909216956044359536956084940191819084018382808284375094975061101a9650505050505050565b3480156105e057600080fd5b506105ec60043561103c565b6040518087815260200186600160a060020a0316600160a060020a0316815260200185600160a060020a0316600160a060020a0316815260200180602001848152602001838152602001828103825285818151815260200191508051906020019080838360005b8381101561066b578181015183820152602001610653565b50505050905090810190601f1680156106985780820380516001836020036101000a031916815260200191505b5097505050505050505060405180910390f35b3480156106b757600080fd5b506102de6111ff565b3480156106cc57600080fd5b506101fa600435611205565b3480156106e457600080fd5b506102de6112ba565b3480156106f957600080fd5b506101d1600160a060020a03600435811690602435166112c0565b34801561072057600080fd5b506102c7600160a060020a03600435166112ee565b7bffffffffffffffffffffffffffffffffffffffffffffffffffffffff191660009081526020819052604090205460ff1690565b60098054604080516020601f60026000196101006001881615020190951694909404938401819004810282018101909252828152606093909290918301828280156107f55780601f106107ca576101008083540402835291602001916107f5565b820191906000526020600020905b8154815290600101906020018083116107d857829003601f168201915b505050505090505b90565b600061080b8261130a565b151561081657600080fd5b50600090815260026020526040902054600160a060020a031690565b600061083d82610d0f565b9050600160a060020a03838116908216141561085857600080fd5b33600160a060020a0382161480610874575061087481336112c0565b151561087f57600080fd5b6000828152600260205260408082208054600160a060020a031916600160a060020a0387811691821790925591518593918516917f8c5be1e5ebec7d5bd14f71427d1e84f3dd0314c0f7b2291e5b200ac8c7c3b92591a4505050565b60075490565b6108eb3382611327565b15156108f657600080fd5b600160a060020a038216151561090b57600080fd5b6109158382611386565b61091f83826113ea565b61092982826114f1565b8082600160a060020a031684600160a060020a03167fddf252ad1be2c89b69c2b068fc378daa952ba7f163c4a11628f55a4df523b3ef60405160405180910390a4505050565b600061097a83610d7b565b821061098557600080fd5b600160a060020a03831660009081526005602052604090208054839081106109a957fe5b9060005260206000200154905092915050565b6109d8838383602060405190810160405280600081525061101a565b505050565b60006109e7610ee6565b6109f157336109fa565b6109fa82610d0f565b9050610a06818361153a565b6000828152601160205260408120818155600181018054600160a060020a031916905590610a376002830182611bd0565b506000600382018190556004909101555050565b610a5433611007565b1515610a5f57600080fd5b600e548111610ab8576040805160e560020a62461bcd02815260206004820152601a60248201527f5374796c65732063616e6e6f7420626520646563726561736564000000000000604482015290519081900360640190fd5b600e55565b6000610ac76108db565b8210610ad257600080fd5b6007805483908110610ae057fe5b90600052602060002001549050919050565b600080601054600f54101515610b52576040805160e560020a62461bcd02815260206004820152601860248201527f4d617820746f6b656e20737570706c7920726561636865640000000000000000604482015290519081900360640190fd5b610b5b33611007565b1515610b6657600080fd5b60008411610bbe576040805160e560020a62461bcd02815260206004820152601e60248201527f44617465206d7573742062652067726561746572207468616e207a65726f0000604482015290519081900360640190fd5b600e54831115610c18576040805160e560020a62461bcd02815260206004820152601660248201527f5374796c65206973206e6f7420617661696c61626c6500000000000000000000604482015290519081900360640190fd5b600f54610c2c90600163ffffffff61158216565b9050610c38878261159b565b60a0604051908101604052808a815260200189600160a060020a0316815260200187878080601f016020809104026020016040519081016040528093929190818152602001838380828437505050928452505050602080820187905260409182018690526000848152601182528290208351815583820151600182018054600160a060020a031916600160a060020a03909216919091179055918301518051610ce79260028501920190611c14565b5060608201516003820155608090910151600490910155600f81905598975050505050505050565b600081815260016020526040812054600160a060020a0316801515610d3357600080fd5b92915050565b6000806000610d478461130a565b15610d6c57505050600081815260116020526040902060038101544281111591610d75565b60009250600091505b50915091565b6000600160a060020a0382161515610d9257600080fd5b50600160a060020a031660009081526003602052604090205490565b610db6610ee6565b1515610dc157600080fd5b600d54604051600091600160a060020a0316907f8be0079c531659141344cd1fd0a4f28419497f9722a3daafe3b4186f6b6457e0908390a3600d8054600160a060020a0319169055565b600e5490565b610e19610ee6565b1515610e2457600080fd5b81600160a060020a031663a9059cbb610e3b610ed7565b836040518363ffffffff167c01000000000000000000000000000000000000000000000000000000000281526004018083600160a060020a0316600160a060020a0316815260200182815260200192505050602060405180830381600087803b158015610ea757600080fd5b505af1158015610ebb573d6000803e3d6000fd5b505050506040513d6020811015610ed157600080fd5b50505050565b600d54600160a060020a031690565b600d54600160a060020a0316331490565b600a8054604080516020601f60026000196101006001881615020190951694909404938401819004810282018101909252828152606093909290918301828280156107f55780601f106107ca576101008083540402835291602001916107f5565b610f6133611007565b1515610f6c57600080fd5b610f75816115ea565b50565b610f8133611632565b565b600160a060020a038216331415610f9957600080fd5b336000818152600460209081526040808320600160a060020a03871680855290835292819020805460ff1916861515908117909155815190815290519293927f17307eab39ab6107e8899845ad3d59bd9653f200f220920489ca2b5937696c31929181900390910190a35050565b6000610d33600c8363ffffffff61167a16565b6110258484846108e1565b611031848484846116b1565b1515610ed157600080fd5b6000806000606060008060006110518861130a565b15156110a7576040805160e560020a62461bcd02815260206004820152601160248201527f546f6b656e206d75737420657869737473000000000000000000000000000000604482015290519081900360640190fd5b5060008781526011602052604090206003810154421015611137576040805160e560020a62461bcd028152602060048201526024808201527f4e6f772073686f756c642062652067726561746572207468616e20676966742060448201527f6461746500000000000000000000000000000000000000000000000000000000606482015290519081900360840190fd5b80546001820154909750600160a060020a0316955061115588610d0f565b60028083018054604080516020601f600019610100600187161502019094169590950492830185900485028101850190915281815293985090918301828280156111e05780601f106111b5576101008083540402835291602001916111e0565b820191906000526020600020905b8154815290600101906020018083116111c357829003601f168201915b5050505050935080600301549250806004015491505091939550919395565b600f5490565b60606112108261130a565b151561121b57600080fd5b6000828152600b602090815260409182902080548351601f6002600019610100600186161502019093169290920491820184900484028101840190945280845290918301828280156112ae5780601f10611283576101008083540402835291602001916112ae565b820191906000526020600020905b81548152906001019060200180831161129157829003601f168201915b50505050509050919050565b60105490565b600160a060020a03918216600090815260046020908152604080832093909416825291909152205460ff1690565b6112f6610ee6565b151561130157600080fd5b610f7581611833565b600090815260016020526040902054600160a060020a0316151590565b60008061133383610d0f565b905080600160a060020a031684600160a060020a0316148061136e575083600160a060020a031661136384610800565b600160a060020a0316145b8061137e575061137e81856112c0565b949350505050565b81600160a060020a031661139982610d0f565b600160a060020a0316146113ac57600080fd5b600081815260026020526040902054600160a060020a0316156113e65760008181526002602052604090208054600160a060020a03191690555b5050565b60008060006113f985856118a4565b600084815260066020908152604080832054600160a060020a038916845260059092529091205490935061143490600163ffffffff61192d16565b600160a060020a03861660009081526005602052604090208054919350908390811061145c57fe5b90600052602060002001549050806005600087600160a060020a0316600160a060020a031681526020019081526020016000208481548110151561149c57fe5b6000918252602080832090910192909255600160a060020a03871681526005909152604090208054906114d3906000198301611c92565b50600093845260066020526040808520859055908452909220555050565b60006114fd8383611944565b50600160a060020a039091166000908152600560209081526040808320805460018101825590845282842081018590559383526006909152902055565b61154482826119c7565b6000818152600b602052604090205460026000196101006001841615020190911604156113e6576000818152600b602052604081206113e691611bd0565b60008282018381101561159457600080fd5b9392505050565b6115a58282611a83565b600780546000838152600860205260408120829055600182018355919091527fa66cc928b5edb82af9bd49922954155ab7b0942694bea4ce44661d9a8736c688015550565b6115fb600c8263ffffffff611ade16565b604051600160a060020a038216907f6ae172837ea30b801fbfcdd4108aa1d5bf8ff775444fd70256b44e6bf3dfc3f690600090a250565b611643600c8263ffffffff611b2c16565b604051600160a060020a038216907fe94479a9f7e1952cc78f2d6baab678adc1b772d936c6583def489e524cb6669290600090a250565b6000600160a060020a038216151561169157600080fd5b50600160a060020a03166000908152602091909152604090205460ff1690565b6000806116c685600160a060020a0316611b78565b15156116d5576001915061182a565b6040517f150b7a020000000000000000000000000000000000000000000000000000000081523360048201818152600160a060020a03898116602485015260448401889052608060648501908152875160848601528751918a169463150b7a0294938c938b938b93909160a490910190602085019080838360005b83811015611768578181015183820152602001611750565b50505050905090810190601f1680156117955780820380516001836020036101000a031916815260200191505b5095505050505050602060405180830381600087803b1580156117b757600080fd5b505af11580156117cb573d6000803e3d6000fd5b505050506040513d60208110156117e157600080fd5b50517bffffffffffffffffffffffffffffffffffffffffffffffffffffffff1981167f150b7a020000000000000000000000000000000000000000000000000000000014925090505b50949350505050565b600160a060020a038116151561184857600080fd5b600d54604051600160a060020a038084169216907f8be0079c531659141344cd1fd0a4f28419497f9722a3daafe3b4186f6b6457e090600090a3600d8054600160a060020a031916600160a060020a0392909216919091179055565b81600160a060020a03166118b782610d0f565b600160a060020a0316146118ca57600080fd5b600160a060020a0382166000908152600360205260409020546118f490600163ffffffff61192d16565b600160a060020a039092166000908152600360209081526040808320949094559181526001909152208054600160a060020a0319169055565b6000808383111561193d57600080fd5b5050900390565b600081815260016020526040902054600160a060020a03161561196657600080fd5b60008181526001602081815260408084208054600160a060020a031916600160a060020a03881690811790915584526003909152909120546119a791611582565b600160a060020a0390921660009081526003602052604090209190915550565b60008060006119d68585611b80565b6000848152600860205260409020546007549093506119fc90600163ffffffff61192d16565b9150600782815481101515611a0d57fe5b9060005260206000200154905080600784815481101515611a2a57fe5b60009182526020822001919091556007805484908110611a4657fe5b6000918252602090912001556007805490611a65906000198301611c92565b50600093845260086020526040808520859055908452909220555050565b600160a060020a0382161515611a9857600080fd5b611aa282826114f1565b6040518190600160a060020a038416906000907fddf252ad1be2c89b69c2b068fc378daa952ba7f163c4a11628f55a4df523b3ef908290a45050565b600160a060020a0381161515611af357600080fd5b611afd828261167a565b15611b0757600080fd5b600160a060020a0316600090815260209190915260409020805460ff19166001179055565b600160a060020a0381161515611b4157600080fd5b611b4b828261167a565b1515611b5657600080fd5b600160a060020a0316600090815260209190915260409020805460ff19169055565b6000903b1190565b611b8a8282611386565b611b9482826113ea565b6040518190600090600160a060020a038516907fddf252ad1be2c89b69c2b068fc378daa952ba7f163c4a11628f55a4df523b3ef908390a45050565b50805460018160011615610100020316600290046000825580601f10611bf65750610f75565b601f016020900490600052602060002090810190610f759190611cb2565b828054600181600116156101000203166002900490600052602060002090601f016020900481019282601f10611c5557805160ff1916838001178555611c82565b82800160010185558215611c82579182015b82811115611c82578251825591602001919060010190611c67565b50611c8e929150611cb2565b5090565b8154818355818111156109d8576000838152602090206109d89181019083015b6107fd91905b80821115611c8e5760008155600101611cb85600a165627a7a723058200d70b49aaf93dc04f9d35e5a241a963cdf7b716169924517369335fe912e6b510029",
  "source": "pragma solidity ^0.4.24;\n\nimport \"openzeppelin-solidity/contracts/token/ERC721/ERC721Full.sol\";\nimport \"openzeppelin-solidity/contracts/access/roles/MinterRole.sol\";\nimport \"eth-token-recover/contracts/TokenRecover.sol\";\n\n/**\n * @title CryptoGiftToken\n * @author Vittorio Minacori (https://github.com/vittominacori)\n * @dev It is an ERC721Full with minter role and a struct that identify the gift\n */\ncontract CryptoGiftToken is ERC721Full, MinterRole, TokenRecover {\n\n  // structure that defines a gift\n  struct GiftStructure {\n    uint256 amount;\n    address purchaser;\n    string content;\n    uint256 date;\n    uint256 style;\n  }\n\n  // number of available gift styles\n  uint256 private _styles;\n\n  // a progressive id\n  uint256 private _progressiveId;\n\n  // max available number of gift\n  uint256 private _maxSupply;\n\n  // Mapping from token ID to the structures\n  mapping(uint256 => GiftStructure) private _structureIndex;\n\n  // checks if we can generate tokens\n  modifier canGenerate() {\n    require(\n      _progressiveId < _maxSupply,\n      \"Max token supply reached\"\n    );\n    _;\n  }\n\n  constructor(\n    string name,\n    string symbol,\n    uint256 maxSupply\n  )\n    public\n    ERC721Full(name, symbol)\n  {\n    _maxSupply = maxSupply;\n  }\n\n  function styles() external view returns (uint256) {\n    return _styles;\n  }\n\n  function progressiveId() external view returns (uint256) {\n    return _progressiveId;\n  }\n\n  function maxSupply() external view returns (uint256) {\n    return _maxSupply;\n  }\n\n  /**\n   * @dev Generate a new gift and the gift structure.\n   */\n  function newGift(\n    uint256 amount,\n    address purchaser,\n    address beneficiary,\n    string content,\n    uint256 date,\n    uint256 style\n  )\n    external\n    canGenerate\n    onlyMinter\n    returns (uint256)\n  {\n    require(\n      date > 0,\n      \"Date must be greater than zero\"\n    );\n    require(\n      style <= _styles,\n      \"Style is not available\"\n    );\n    uint256 tokenId = _progressiveId.add(1);\n    _mint(beneficiary, tokenId);\n    _structureIndex[tokenId] = GiftStructure(\n      amount,\n      purchaser,\n      content,\n      date,\n      style\n    );\n    _progressiveId = tokenId;\n    return tokenId;\n  }\n\n  /**\n   * @dev Checks if token is visible.\n   */\n  function isVisible (\n    uint256 tokenId\n  )\n    external\n    view\n    returns (bool visible, uint256 date)\n  {\n    if (_exists(tokenId)) {\n      GiftStructure storage gift = _structureIndex[tokenId];\n\n      // solium-disable-next-line security/no-block-members\n      visible = block.timestamp >= gift.date;\n      date = gift.date;\n    } else {\n      visible = false;\n      date = 0;\n    }\n  }\n\n  /**\n   * @dev Returns the gift structure.\n   */\n  function getGift (uint256 tokenId)\n    external\n    view\n    returns (\n      uint256 amount,\n      address purchaser,\n      address beneficiary,\n      string content,\n      uint256 date,\n      uint256 style\n    )\n  {\n    require(\n      _exists(tokenId),\n      \"Token must exists\"\n    );\n\n    GiftStructure storage gift = _structureIndex[tokenId];\n\n    require(\n      block.timestamp >= gift.date, // solium-disable-line security/no-block-members\n      \"Now should be greater than gift date\"\n    );\n\n    amount = gift.amount;\n    purchaser = gift.purchaser;\n    beneficiary = ownerOf(tokenId);\n    content = gift.content;\n    date = gift.date;\n    style = gift.style;\n  }\n\n  /**\n   * @dev Only contract owner or token owner can burn\n   */\n  function burn(uint256 tokenId) external {\n    address tokenOwner = isOwner() ? ownerOf(tokenId) : msg.sender;\n    super._burn(tokenOwner, tokenId);\n    delete _structureIndex[tokenId];\n  }\n\n  /**\n   * @dev Set the max amount of styles available\n   */\n  function setStyles(uint256 newStyles) external onlyMinter {\n    require(\n      newStyles > _styles,\n      \"Styles cannot be decreased\"\n    );\n    _styles = newStyles;\n  }\n}\n",
  "sourcePath": "/Users/vittominacori/Projects/vittominacori.github.io/cryptogift/cryptogift-smartcontracts/contracts/token/CryptoGiftToken.sol",
  "compiler": {
    "name": "solc",
    "version": "0.4.24+commit.e67f0147.Emscripten.clang"
  },
  "schemaVersion": "2.0.1",
  "updatedAt": "2018-11-18T12:33:53.396Z"
}