{
  "contractName": "CryptoGiftMarketplace",
  "abi": [
    {
      "constant": false,
      "inputs": [],
      "name": "renounceOwnership",
      "outputs": [],
      "payable": false,
      "stateMutability": "nonpayable",
      "type": "function"
    },
    {
      "constant": false,
      "inputs": [
        {
          "name": "tokenAddress",
          "type": "address"
        },
        {
          "name": "tokenAmount",
          "type": "uint256"
        }
      ],
      "name": "recoverERC20",
      "outputs": [],
      "payable": false,
      "stateMutability": "nonpayable",
      "type": "function"
    },
    {
      "constant": true,
      "inputs": [],
      "name": "owner",
      "outputs": [
        {
          "name": "",
          "type": "address"
        }
      ],
      "payable": false,
      "stateMutability": "view",
      "type": "function"
    },
    {
      "constant": true,
      "inputs": [],
      "name": "isOwner",
      "outputs": [
        {
          "name": "",
          "type": "bool"
        }
      ],
      "payable": false,
      "stateMutability": "view",
      "type": "function"
    },
    {
      "constant": false,
      "inputs": [
        {
          "name": "newOwner",
          "type": "address"
        }
      ],
      "name": "transferOwnership",
      "outputs": [],
      "payable": false,
      "stateMutability": "nonpayable",
      "type": "function"
    },
    {
      "inputs": [
        {
          "name": "price",
          "type": "uint256"
        },
        {
          "name": "wallet",
          "type": "address"
        },
        {
          "name": "token",
          "type": "address"
        }
      ],
      "payable": false,
      "stateMutability": "nonpayable",
      "type": "constructor"
    },
    {
      "anonymous": false,
      "inputs": [
        {
          "indexed": true,
          "name": "purchaser",
          "type": "address"
        },
        {
          "indexed": true,
          "name": "beneficiary",
          "type": "address"
        },
        {
          "indexed": false,
          "name": "value",
          "type": "uint256"
        },
        {
          "indexed": false,
          "name": "tokenId",
          "type": "uint256"
        }
      ],
      "name": "TokenPurchase",
      "type": "event"
    },
    {
      "anonymous": false,
      "inputs": [
        {
          "indexed": true,
          "name": "previousOwner",
          "type": "address"
        },
        {
          "indexed": true,
          "name": "newOwner",
          "type": "address"
        }
      ],
      "name": "OwnershipTransferred",
      "type": "event"
    },
    {
      "constant": true,
      "inputs": [],
      "name": "token",
      "outputs": [
        {
          "name": "",
          "type": "address"
        }
      ],
      "payable": false,
      "stateMutability": "view",
      "type": "function"
    },
    {
      "constant": true,
      "inputs": [],
      "name": "wallet",
      "outputs": [
        {
          "name": "",
          "type": "address"
        }
      ],
      "payable": false,
      "stateMutability": "view",
      "type": "function"
    },
    {
      "constant": true,
      "inputs": [],
      "name": "price",
      "outputs": [
        {
          "name": "",
          "type": "uint256"
        }
      ],
      "payable": false,
      "stateMutability": "view",
      "type": "function"
    },
    {
      "constant": false,
      "inputs": [
        {
          "name": "beneficiary",
          "type": "address"
        },
        {
          "name": "content",
          "type": "string"
        },
        {
          "name": "date",
          "type": "uint256"
        },
        {
          "name": "style",
          "type": "uint256"
        }
      ],
      "name": "buyToken",
      "outputs": [],
      "payable": true,
      "stateMutability": "payable",
      "type": "function"
    },
    {
      "constant": false,
      "inputs": [
        {
          "name": "newPrice",
          "type": "uint256"
        }
      ],
      "name": "setPrice",
      "outputs": [],
      "payable": false,
      "stateMutability": "nonpayable",
      "type": "function"
    },
    {
      "constant": false,
      "inputs": [
        {
          "name": "newWallet",
          "type": "address"
        }
      ],
      "name": "setWallet",
      "outputs": [],
      "payable": false,
      "stateMutability": "nonpayable",
      "type": "function"
    }
  ],
  "bytecode": "0x608060405234801561001057600080fd5b50604051606080610a8183398101604081815282516020840151919093015160008054600160a060020a031916331780825592939192600160a060020a0316917f8be0079c531659141344cd1fd0a4f28419497f9722a3daafe3b4186f6b6457e0908290a3600160a060020a03821615156100ec57604080517f08c379a000000000000000000000000000000000000000000000000000000000815260206004820181905260248201527f57616c6c65742063616e277420626520746865207a65726f2061646472657373604482015290519081900360640190fd5b600160a060020a038116151561016357604080517f08c379a000000000000000000000000000000000000000000000000000000000815260206004820152601f60248201527f546f6b656e2063616e277420626520746865207a65726f206164647265737300604482015290519081900360640190fd5b60039290925560028054600160a060020a03928316600160a060020a031991821617909155600180549290931691161790556108dd806101a46000396000f3006080604052600436106100955763ffffffff60e060020a600035041663521eb273811461009a578063715018a6146100cb5780638980f11f146100e25780638bd37902146101065780638da5cb5b146101695780638f32d59b1461017e57806391b7f5ed146101a7578063a035b1fe146101bf578063deaa59df146101e6578063f2fde38b14610207578063fc0c546a14610228575b600080fd5b3480156100a657600080fd5b506100af61023d565b60408051600160a060020a039092168252519081900360200190f35b3480156100d757600080fd5b506100e061024c565b005b3480156100ee57600080fd5b506100e0600160a060020a03600435166024356102b6565b60408051602060046024803582810135601f81018590048502860185019096528585526100e0958335600160a060020a03169536956044949193909101919081908401838280828437509497505084359550505060209092013591506103639050565b34801561017557600080fd5b506100af6103ef565b34801561018a57600080fd5b506101936103fe565b604080519115158252519081900360200190f35b3480156101b357600080fd5b506100e060043561040f565b3480156101cb57600080fd5b506101d4610427565b60408051918252519081900360200190f35b3480156101f257600080fd5b506100e0600160a060020a036004351661042d565b34801561021357600080fd5b506100e0600160a060020a03600435166104e6565b34801561023457600080fd5b506100af610505565b600254600160a060020a031690565b6102546103fe565b151561025f57600080fd5b60008054604051600160a060020a03909116907f8be0079c531659141344cd1fd0a4f28419497f9722a3daafe3b4186f6b6457e0908390a36000805473ffffffffffffffffffffffffffffffffffffffff19169055565b6102be6103fe565b15156102c957600080fd5b81600160a060020a031663a9059cbb6102e06103ef565b836040518363ffffffff1660e060020a0281526004018083600160a060020a0316600160a060020a0316815260200182815260200192505050602060405180830381600087803b15801561033357600080fd5b505af1158015610347573d6000803e3d6000fd5b505050506040513d602081101561035d57600080fd5b50505050565b346000806103718784610514565b60035461038590349063ffffffff61064c16565b91506103948288888888610663565b60408051848152602081018390528151929350600160a060020a038a169233927f623b3804fa71d67900d064613da8f94b9617215ee90799290593e1745087ad18928290030190a36103e682886107a7565b50505050505050565b600054600160a060020a031690565b600054600160a060020a0316331490565b6104176103fe565b151561042257600080fd5b600355565b60035490565b6104356103fe565b151561044057600080fd5b600160a060020a03811615156104b757604080517f08c379a000000000000000000000000000000000000000000000000000000000815260206004820181905260248201527f57616c6c65742063616e277420626520746865207a65726f2061646472657373604482015290519081900360640190fd5b6002805473ffffffffffffffffffffffffffffffffffffffff1916600160a060020a0392909216919091179055565b6104ee6103fe565b15156104f957600080fd5b61050281610834565b50565b600154600160a060020a031690565b600160a060020a03821615156105b157604080517f08c379a000000000000000000000000000000000000000000000000000000000815260206004820152602560248201527f42656e65666963696172792063616e277420626520746865207a65726f20616460448201527f6472657373000000000000000000000000000000000000000000000000000000606482015290519081900360840190fd5b60035481101561064857604080517f08c379a000000000000000000000000000000000000000000000000000000000815260206004820152603560248201527f53656e7420455448206d7573742062652067726561746572207468616e206f7260448201527f20657175616c20746f20746f6b656e2070726963650000000000000000000000606482015290519081900360840190fd5b5050565b6000808383111561065c57600080fd5b5050900390565b6000600160009054906101000a9004600160a060020a0316600160a060020a03166331443e1b8733888888886040518763ffffffff1660e060020a0281526004018087815260200186600160a060020a0316600160a060020a0316815260200185600160a060020a0316600160a060020a0316815260200180602001848152602001838152602001828103825285818151815260200191508051906020019080838360005b83811015610720578181015183820152602001610708565b50505050905090810190601f16801561074d5780820380516001836020036101000a031916815260200191505b50975050505050505050602060405180830381600087803b15801561077157600080fd5b505af1158015610785573d6000803e3d6000fd5b505050506040513d602081101561079b57600080fd5b50519695505050505050565b600060035411156107f057600254600354604051600160a060020a039092169181156108fc0291906000818181858888f193505050501580156107ee573d6000803e3d6000fd5b505b600082111561064857604051600160a060020a0382169083156108fc029084906000818181858888f1935050505015801561082f573d6000803e3d6000fd5b505050565b600160a060020a038116151561084957600080fd5b60008054604051600160a060020a03808516939216917f8be0079c531659141344cd1fd0a4f28419497f9722a3daafe3b4186f6b6457e091a36000805473ffffffffffffffffffffffffffffffffffffffff1916600160a060020a03929092169190911790555600a165627a7a7230582095dce788379195ee57e6020e8001187f7e38373af1c91ee2dfcf1d35276cc5740029",
  "source": "pragma solidity ^0.4.24;\n\nimport \"openzeppelin-solidity/contracts/math/SafeMath.sol\";\nimport \"../token/CryptoGiftToken.sol\";\n\ncontract CryptoGiftMarketplace is TokenRecover {\n  using SafeMath for uint256;\n\n  // The token being sold\n  CryptoGiftToken private _token;\n\n  // Address where funds are collected\n  address private _wallet;\n\n  // The price for a token\n  uint256 private _price;\n\n  /**\n   * Event for token purchase logging\n   * @param purchaser who paid for the tokens\n   * @param beneficiary who got the tokens\n   * @param value weis paid for purchase\n   * @param tokenId the token id purchased\n   */\n  event TokenPurchase(\n    address indexed purchaser,\n    address indexed beneficiary,\n    uint256 value,\n    uint256 tokenId\n  );\n\n  /**\n   * @param price The price for a token in wei\n   * @param wallet Address where collected funds will be forwarded to\n   * @param token Address of the token being sold\n   */\n  constructor(uint256 price, address wallet, address token) public {\n    require(\n      wallet != address(0),\n      \"Wallet can't be the zero address\"\n    );\n    require(\n      token != address(0),\n      \"Token can't be the zero address\"\n    );\n\n    _price = price;\n    _wallet = wallet;\n    _token = CryptoGiftToken(token);\n  }\n\n  function token() public view returns (CryptoGiftToken) {\n    return _token;\n  }\n\n  function wallet() public view returns (address) {\n    return _wallet;\n  }\n\n  function price() public view returns (uint256) {\n    return _price;\n  }\n\n  /**\n   * @dev low level token purchase ***DO NOT OVERRIDE***\n   * @param beneficiary Address performing the token purchase\n   */\n  function buyToken(\n    address beneficiary,\n    string content,\n    uint256 date,\n    uint256 style\n  )\n    public\n    payable\n  {\n    uint256 weiAmount = msg.value;\n    _preValidatePurchase(beneficiary, weiAmount);\n\n    uint256 giftValue = msg.value.sub(_price);\n\n    uint256 lastTokenId = _processPurchase(\n      giftValue,\n      beneficiary,\n      content,\n      date,\n      style\n    );\n\n    emit TokenPurchase(\n      msg.sender,\n      beneficiary,\n      giftValue,\n      lastTokenId\n    );\n\n    _forwardFunds(giftValue, beneficiary);\n  }\n\n  /**\n   * @dev Set the price of a gift\n   * @param newPrice Value of the gift\n   */\n  function setPrice(uint256 newPrice) public onlyOwner {\n    _price = newPrice;\n  }\n\n  /**\n   * @dev Change the destination wallet\n   * @param newWallet Address of the wallet\n   */\n  function setWallet(address newWallet) public onlyOwner {\n    require(\n      newWallet != address(0),\n      \"Wallet can't be the zero address\"\n    );\n\n    _wallet = newWallet;\n  }\n\n  /**\n   * @dev Validation of an incoming purchase. Use require statements to revert state when conditions are not met. Use super to concatenate validations.\n   * @param beneficiary Address performing the token purchase\n   * @param weiAmount Value in wei involved in the purchase\n   */\n  function _preValidatePurchase(\n    address beneficiary,\n    uint256 weiAmount\n  )\n    internal\n    view\n  {\n    require(\n      beneficiary != address(0),\n      \"Beneficiary can't be the zero address\"\n    );\n    require(\n      weiAmount >= _price,\n      \"Sent ETH must be greater than or equal to token price\"\n    );\n  }\n\n  /**\n   * @dev Executed when a purchase has been validated and is ready to be executed.\n   */\n  function _processPurchase(\n    uint256 amount,\n    address beneficiary,\n    string content,\n    uint256 date,\n    uint256 style\n  )\n    internal\n    returns (uint256)\n  {\n    return _token.newToken(\n      amount,\n      msg.sender,\n      beneficiary,\n      content,\n      date,\n      style\n    );\n  }\n\n  /**\n   * @dev Determines how ETH is stored/forwarded on purchases.\n   */\n  function _forwardFunds(uint256 giftValue, address beneficiary) internal {\n    if (_price > 0) {\n      _wallet.transfer(_price);\n    }\n\n    if (giftValue > 0) {\n      beneficiary.transfer(giftValue);\n    }\n  }\n}\n",
  "sourcePath": "/Users/vittominacori/Projects/vittominacori.github.io/cryptogift/cryptogift-smartcontracts/contracts/marketplace/CryptoGiftMarketplace.sol",
  "compiler": {
    "name": "solc",
    "version": "0.4.24+commit.e67f0147.Emscripten.clang"
  },
  "schemaVersion": "2.0.1",
  "updatedAt": "2018-11-05T20:56:27.319Z"
}