{
  "contractName": "CryptoGiftMarketplace",
  "abi": [
    {
      "constant": false,
      "inputs": [],
      "name": "renounceOwnership",
      "outputs": [],
      "payable": false,
      "stateMutability": "nonpayable",
      "type": "function"
    },
    {
      "constant": false,
      "inputs": [
        {
          "name": "tokenAddress",
          "type": "address"
        },
        {
          "name": "tokenAmount",
          "type": "uint256"
        }
      ],
      "name": "recoverERC20",
      "outputs": [],
      "payable": false,
      "stateMutability": "nonpayable",
      "type": "function"
    },
    {
      "constant": true,
      "inputs": [],
      "name": "owner",
      "outputs": [
        {
          "name": "",
          "type": "address"
        }
      ],
      "payable": false,
      "stateMutability": "view",
      "type": "function"
    },
    {
      "constant": true,
      "inputs": [],
      "name": "isOwner",
      "outputs": [
        {
          "name": "",
          "type": "bool"
        }
      ],
      "payable": false,
      "stateMutability": "view",
      "type": "function"
    },
    {
      "constant": false,
      "inputs": [
        {
          "name": "newOwner",
          "type": "address"
        }
      ],
      "name": "transferOwnership",
      "outputs": [],
      "payable": false,
      "stateMutability": "nonpayable",
      "type": "function"
    },
    {
      "inputs": [
        {
          "name": "price",
          "type": "uint256"
        },
        {
          "name": "wallet",
          "type": "address"
        },
        {
          "name": "token",
          "type": "address"
        }
      ],
      "payable": false,
      "stateMutability": "nonpayable",
      "type": "constructor"
    },
    {
      "anonymous": false,
      "inputs": [
        {
          "indexed": true,
          "name": "purchaser",
          "type": "address"
        },
        {
          "indexed": true,
          "name": "beneficiary",
          "type": "address"
        },
        {
          "indexed": false,
          "name": "value",
          "type": "uint256"
        },
        {
          "indexed": false,
          "name": "tokenId",
          "type": "uint256"
        }
      ],
      "name": "TokenPurchase",
      "type": "event"
    },
    {
      "anonymous": false,
      "inputs": [
        {
          "indexed": true,
          "name": "previousOwner",
          "type": "address"
        },
        {
          "indexed": true,
          "name": "newOwner",
          "type": "address"
        }
      ],
      "name": "OwnershipTransferred",
      "type": "event"
    },
    {
      "constant": false,
      "inputs": [
        {
          "name": "beneficiary",
          "type": "address"
        },
        {
          "name": "content",
          "type": "string"
        },
        {
          "name": "date",
          "type": "uint256"
        },
        {
          "name": "style",
          "type": "uint256"
        }
      ],
      "name": "buyToken",
      "outputs": [],
      "payable": true,
      "stateMutability": "payable",
      "type": "function"
    },
    {
      "constant": true,
      "inputs": [],
      "name": "token",
      "outputs": [
        {
          "name": "",
          "type": "address"
        }
      ],
      "payable": false,
      "stateMutability": "view",
      "type": "function"
    },
    {
      "constant": true,
      "inputs": [],
      "name": "wallet",
      "outputs": [
        {
          "name": "",
          "type": "address"
        }
      ],
      "payable": false,
      "stateMutability": "view",
      "type": "function"
    },
    {
      "constant": true,
      "inputs": [],
      "name": "price",
      "outputs": [
        {
          "name": "",
          "type": "uint256"
        }
      ],
      "payable": false,
      "stateMutability": "view",
      "type": "function"
    },
    {
      "constant": false,
      "inputs": [
        {
          "name": "newPrice",
          "type": "uint256"
        }
      ],
      "name": "setPrice",
      "outputs": [],
      "payable": false,
      "stateMutability": "nonpayable",
      "type": "function"
    },
    {
      "constant": false,
      "inputs": [
        {
          "name": "newWallet",
          "type": "address"
        }
      ],
      "name": "setWallet",
      "outputs": [],
      "payable": false,
      "stateMutability": "nonpayable",
      "type": "function"
    }
  ],
  "bytecode": "0x608060405234801561001057600080fd5b50604051606080610a7783398101604081815282516020840151919093015160008054600160a060020a031916331780825592939192600160a060020a0316917f8be0079c531659141344cd1fd0a4f28419497f9722a3daafe3b4186f6b6457e0908290a3600160a060020a03821615156100ec57604080517f08c379a000000000000000000000000000000000000000000000000000000000815260206004820181905260248201527f57616c6c65742063616e277420626520746865207a65726f2061646472657373604482015290519081900360640190fd5b600160a060020a038116151561016357604080517f08c379a000000000000000000000000000000000000000000000000000000000815260206004820152601f60248201527f546f6b656e2063616e277420626520746865207a65726f206164647265737300604482015290519081900360640190fd5b60039290925560028054600160a060020a03928316600160a060020a031991821617909155600180549290931691161790556108d3806101a46000396000f3006080604052600436106100955763ffffffff60e060020a600035041663521eb273811461009a578063715018a6146100cb5780638980f11f146100e25780638bd37902146101065780638da5cb5b1461012c5780638f32d59b1461014157806391b7f5ed1461016a578063a035b1fe14610182578063deaa59df146101a9578063f2fde38b146101ca578063fc0c546a146101eb575b600080fd5b3480156100a657600080fd5b506100af610200565b60408051600160a060020a039092168252519081900360200190f35b3480156100d757600080fd5b506100e061020f565b005b3480156100ee57600080fd5b506100e0600160a060020a0360043516602435610279565b6100e060048035600160a060020a03169060248035908101910135604435606435610326565b34801561013857600080fd5b506100af6103e5565b34801561014d57600080fd5b506101566103f4565b604080519115158252519081900360200190f35b34801561017657600080fd5b506100e0600435610405565b34801561018e57600080fd5b5061019761041d565b60408051918252519081900360200190f35b3480156101b557600080fd5b506100e0600160a060020a0360043516610423565b3480156101d657600080fd5b506100e0600160a060020a03600435166104dc565b3480156101f757600080fd5b506100af6104fb565b600254600160a060020a031690565b6102176103f4565b151561022257600080fd5b60008054604051600160a060020a03909116907f8be0079c531659141344cd1fd0a4f28419497f9722a3daafe3b4186f6b6457e0908390a36000805473ffffffffffffffffffffffffffffffffffffffff19169055565b6102816103f4565b151561028c57600080fd5b81600160a060020a031663a9059cbb6102a36103e5565b836040518363ffffffff1660e060020a0281526004018083600160a060020a0316600160a060020a0316815260200182815260200192505050602060405180830381600087803b1580156102f657600080fd5b505af115801561030a573d6000803e3d6000fd5b505050506040513d602081101561032057600080fd5b50505050565b34600080610334888461050a565b60035461034890349063ffffffff61064216565b9150610389828989898080601f0160208091040260200160405190810160405280939291908181526020018383808284378201915050505050508888610659565b60408051848152602081018390528151929350600160a060020a038b169233927f623b3804fa71d67900d064613da8f94b9617215ee90799290593e1745087ad18928290030190a36103db828961079d565b5050505050505050565b600054600160a060020a031690565b600054600160a060020a0316331490565b61040d6103f4565b151561041857600080fd5b600355565b60035490565b61042b6103f4565b151561043657600080fd5b600160a060020a03811615156104ad57604080517f08c379a000000000000000000000000000000000000000000000000000000000815260206004820181905260248201527f57616c6c65742063616e277420626520746865207a65726f2061646472657373604482015290519081900360640190fd5b6002805473ffffffffffffffffffffffffffffffffffffffff1916600160a060020a0392909216919091179055565b6104e46103f4565b15156104ef57600080fd5b6104f88161082a565b50565b600154600160a060020a031690565b600160a060020a03821615156105a757604080517f08c379a000000000000000000000000000000000000000000000000000000000815260206004820152602560248201527f42656e65666963696172792063616e277420626520746865207a65726f20616460448201527f6472657373000000000000000000000000000000000000000000000000000000606482015290519081900360840190fd5b60035481101561063e57604080517f08c379a000000000000000000000000000000000000000000000000000000000815260206004820152603560248201527f53656e7420455448206d7573742062652067726561746572207468616e206f7260448201527f20657175616c20746f20746f6b656e2070726963650000000000000000000000606482015290519081900360840190fd5b5050565b6000808383111561065257600080fd5b5050900390565b6000600160009054906101000a9004600160a060020a0316600160a060020a031663568d67e38733888888886040518763ffffffff1660e060020a0281526004018087815260200186600160a060020a0316600160a060020a0316815260200185600160a060020a0316600160a060020a0316815260200180602001848152602001838152602001828103825285818151815260200191508051906020019080838360005b838110156107165781810151838201526020016106fe565b50505050905090810190601f1680156107435780820380516001836020036101000a031916815260200191505b50975050505050505050602060405180830381600087803b15801561076757600080fd5b505af115801561077b573d6000803e3d6000fd5b505050506040513d602081101561079157600080fd5b50519695505050505050565b600060035411156107e657600254600354604051600160a060020a039092169181156108fc0291906000818181858888f193505050501580156107e4573d6000803e3d6000fd5b505b600082111561063e57604051600160a060020a0382169083156108fc029084906000818181858888f19350505050158015610825573d6000803e3d6000fd5b505050565b600160a060020a038116151561083f57600080fd5b60008054604051600160a060020a03808516939216917f8be0079c531659141344cd1fd0a4f28419497f9722a3daafe3b4186f6b6457e091a36000805473ffffffffffffffffffffffffffffffffffffffff1916600160a060020a03929092169190911790555600a165627a7a72305820fb2c8b5f0a881ed4ce673315b9751a9e71f4a5b4db31a515b21397f1613b21b10029",
  "source": "pragma solidity ^0.4.24;\n\nimport \"openzeppelin-solidity/contracts/math/SafeMath.sol\";\nimport \"../token/CryptoGiftToken.sol\";\n\n/**\n * @title CryptoGiftMarketplace\n * @author Vittorio Minacori (https://github.com/vittominacori)\n * @dev It is Crowdsale contract to sell CryptoGift\n */\ncontract CryptoGiftMarketplace is TokenRecover {\n  using SafeMath for uint256;\n\n  // The token being sold\n  CryptoGiftToken private _token;\n\n  // Address where funds are collected\n  address private _wallet;\n\n  // The price for a token\n  uint256 private _price;\n\n  /**\n   * Event for token purchase logging\n   * @param purchaser who paid for the tokens\n   * @param beneficiary who got the tokens\n   * @param value weis paid for purchase\n   * @param tokenId the token id purchased\n   */\n  event TokenPurchase(\n    address indexed purchaser,\n    address indexed beneficiary,\n    uint256 value,\n    uint256 tokenId\n  );\n\n  /**\n   * @param price The price for a token in wei\n   * @param wallet Address where collected funds will be forwarded to\n   * @param token Address of the token being sold\n   */\n  constructor(uint256 price, address wallet, address token) public {\n    require(\n      wallet != address(0),\n      \"Wallet can't be the zero address\"\n    );\n    require(\n      token != address(0),\n      \"Token can't be the zero address\"\n    );\n\n    _price = price;\n    _wallet = wallet;\n    _token = CryptoGiftToken(token);\n  }\n\n  /**\n   * @dev low level token purchase ***DO NOT OVERRIDE***\n   * @param beneficiary Address performing the token purchase\n   */\n  function buyToken(\n    address beneficiary,\n    string content,\n    uint256 date,\n    uint256 style\n  )\n    external\n    payable\n  {\n    uint256 weiAmount = msg.value;\n    _preValidatePurchase(beneficiary, weiAmount);\n\n    uint256 giftValue = msg.value.sub(_price);\n\n    uint256 lastTokenId = _processPurchase(\n      giftValue,\n      beneficiary,\n      content,\n      date,\n      style\n    );\n\n    emit TokenPurchase(\n      msg.sender,\n      beneficiary,\n      giftValue,\n      lastTokenId\n    );\n\n    _forwardFunds(giftValue, beneficiary);\n  }\n\n  function token() external view returns (CryptoGiftToken) {\n    return _token;\n  }\n\n  function wallet() external view returns (address) {\n    return _wallet;\n  }\n\n  function price() external view returns (uint256) {\n    return _price;\n  }\n\n  /**\n   * @dev Set the price of a gift\n   * @param newPrice Value of the gift\n   */\n  function setPrice(uint256 newPrice) external onlyOwner {\n    _price = newPrice;\n  }\n\n  /**\n   * @dev Change the destination wallet\n   * @param newWallet Address of the wallet\n   */\n  function setWallet(address newWallet) external onlyOwner {\n    require(\n      newWallet != address(0),\n      \"Wallet can't be the zero address\"\n    );\n\n    _wallet = newWallet;\n  }\n\n  /**\n   * @dev Validation of an incoming purchase. Use require statements to revert state when conditions are not met. Use super to concatenate validations.\n   * @param beneficiary Address performing the token purchase\n   * @param weiAmount Value in wei involved in the purchase\n   */\n  function _preValidatePurchase(\n    address beneficiary,\n    uint256 weiAmount\n  )\n    internal\n    view\n  {\n    require(\n      beneficiary != address(0),\n      \"Beneficiary can't be the zero address\"\n    );\n    require(\n      weiAmount >= _price,\n      \"Sent ETH must be greater than or equal to token price\"\n    );\n  }\n\n  /**\n   * @dev Executed when a purchase has been validated and is ready to be executed.\n   */\n  function _processPurchase(\n    uint256 amount,\n    address beneficiary,\n    string content,\n    uint256 date,\n    uint256 style\n  )\n    internal\n    returns (uint256)\n  {\n    return _token.newGift(\n      amount,\n      msg.sender,\n      beneficiary,\n      content,\n      date,\n      style\n    );\n  }\n\n  /**\n   * @dev Determines how ETH is stored/forwarded on purchases.\n   */\n  function _forwardFunds(uint256 giftValue, address beneficiary) internal {\n    if (_price > 0) {\n      _wallet.transfer(_price);\n    }\n\n    if (giftValue > 0) {\n      beneficiary.transfer(giftValue);\n    }\n  }\n}\n",
  "sourcePath": "/Users/vittominacori/Projects/vittominacori.github.io/cryptogift/cryptogift-smartcontracts/contracts/marketplace/CryptoGiftMarketplace.sol",
  "compiler": {
    "name": "solc",
    "version": "0.4.24+commit.e67f0147.Emscripten.clang"
  },
  "schemaVersion": "2.0.1",
  "updatedAt": "2018-11-18T12:33:53.392Z"
}